:020000040800F2
:10000000881E0020210200088F1E0008C91B00085E
:100010008D1E00085B040008F525000800000000A4
:10002000000000000000000000000000890100083E
:10003000B704000800000000CD010008991E000868
:100040003B0200083B0200083B0200083B0200089C
:100050003B0200083B0200083B0200083B0200088C
:100060003B0200083B0200083B0200083B0200087C
:100070005D04000869040008750400088104000894
:100080003B0200083B0200083B0200083B0200085C
:100090003B0200083B0200083B0200083B0200084C
:1000A0003B020008151F00083B0200083B02000845
:1000B0003B0200083B0200083B0200083B0200082C
:1000C0003B0200083B0200083B0200083B0200081C
:1000D0003B020008152500083B0200082D250008FA
:1000E0003B0200083B0200083B02000800F002F857
:1000F00000F03AF80AA090E8000C82448344AAF188
:100100000107DA4501D100F02FF8AFF2090EBAE885
:100110000F0013F0010F18BFFB1A43F0010318473B
:1001200094330000B4330000103A24BF78C878C17B
:10013000FAD8520724BF30C830C144BF04680C60ED
:10014000704700000023002400250026103A28BF35
:1001500078C1FBD8520728BF30C148BF0B60704739
:100160001FB51FBD10B510BD00F03DF91146FFF7DA
:10017000F7FF02F0B9FA00F05BF903B4FFF7F2FF02
:1001800003BC00F063F90000224B19680868B0E86E
:10019000F00F80F30988BFF36F8F4FF0000080F3FA
:1001A00011884EF00D0E70470000000006480068F0
:1001B000006880F3088862B661B6BFF34F8FBFF363
:1001C0006F8F00DF00BF00BF08ED00E0EFF3098094
:1001D000BFF36F8F0F4B1A6820E9F00F106008B55E
:1001E0004FF0500080F31188BFF34F8FBFF36F8F34
:1001F00002F0F8FE4FF0000080F31188BDE80840DF
:1002000019680868B0E8F00F80F30988BFF36F8FB2
:10021000704700BF24000020EFF305807047000006
:100220000948804709480047FEE7FEE7FEE7FEE78A
:10023000FEE7FEE7FEE7FEE7FEE7FEE704480549C6
:10024000054A064B70470000131F0008ED00000828
:1002500088180020881E0020881A0020881A002094
:10026000032A40F2308010F0030C00F0158011F8E2
:10027000013BBCF1020F624498BF11F801CB00F8BA
:10028000013B38BF11F8013BA2F1040298BF00F80E
:1002900001CB38BF00F8013B11F0030300F02580CB
:1002A000083AC0F0088051F8043B083A51F804CBF2
:1002B000A0E80810F5E7121D5CBF51F8043B40F8B8
:1002C000043BAFF30080D20724BF11F8013B11F8C3
:1002D00001CB48BF11F8012B24BF00F8013B00F807
:1002E00001CB48BF00F8012B704710B5203AC0F091
:1002F0000B80B1E81850203AA0E81850B1E8185027
:10030000A0E81850BFF4F5AF5FEA027C24BFB1E863
:100310001850A0E8185044BF18C918C0BDE81040D4
:100320005FEA827C24BF51F8043B40F8043B08BFDD
:100330007047D20728BF31F8023B48BF11F8012BA4
:1003400028BF20F8023B48BF00F8012B70474FF050
:1003500000020429C0F0128010F0030C00F01B8092
:10036000CCF1040CBCF1020F18BF00F8012BA8BFA0
:1003700020F8022BA1EB0C0100F00DB85FEAC17C64
:1003800024BF00F8012B00F8012B48BF00F8012B17
:1003900070474FF0000200B5134694469646203948
:1003A00022BFA0E80C50A0E80C50B1F12001BFF42E
:1003B000F7AF090728BFA0E80C5048BF0CC05DF894
:1003C00004EB890028BF40F8042B08BF704748BFE2
:1003D00020F8022B11F0804F18BF00F8012B704756
:1003E000704770477047754600F02CF8AE46050020
:1003F0006946534620F00700854618B020B5FFF740
:100400001DFFBDE820404FF000064FF000074FF001
:1004100000084FF0000B21F00701AC46ACE8C00922
:10042000ACE8C009ACE8C009ACE8C0098D4670472B
:1004300010B50446AFF300802046BDE81040FFF73A
:100440009CBE000000487047281800200149182071
:10045000ABBEFEE7260002007047FEE7014800F051
:100460009BB80000AC0A0020014800F095B80000DD
:10047000680A0020014800F08FB80000240A00201C
:10048000014800F089B80000E009002030B590F87C
:1004900040500124AC40C56B6C60046863604368E5
:1004A000102B036803D099600068C26030BD9A6069
:1004B0000068C16030BD7047704710B590F82110DA
:1004C0000022022905D00421816380F82020012028
:1004D00010BD01680B6823F00E030B6001680B6808
:1004E00023F001030B6090F84030C46B012101FA46
:1004F00003F3636080F8211080F82020104610BDBF
:1005000010B590F821100024022903D00421816342
:1005100001243DE001680A6822F00E020A600168C9
:100520000A6822F001020A601A4A0168914201D168
:10053000012121E0174A1432914201D110211BE020
:10054000144A2832914201D1891515E0114A3C32F2
:10055000914201D189140FE00E4A5032914202D1EA
:100560004FF4803108E00B4A6432914202D14FF4DB
:10057000801101E04FF08071064A083A5160012174
:1005800080F82110002180F82010416B01B18847CC
:10059000204610BD080002402DE9F05FC16B0C68D9
:1005A00001680B68D0F840C0042202FA0CF2494DF1
:1005B000DFF824A1494E4A4FDFF828B1DFF828E1DF
:1005C00022422CD05A072AD50A68920603D40A6818
:1005D00022F004020A600168A94201D1042219E054
:1005E000514501D1402215E0B14202D14FF4806261
:1005F00010E0B94202D14FF480420BE0594502D1DC
:100600004FF4802206E0714502D14FF4800201E0F0
:100610004FF080622F4908394A60C16A3BE04FF0D1
:10062000020808FA0CF818EA040F4FF000094FF01E
:10063000010235D05FEA837832D50B689B0605D47A
:100640000B6823F00A030B6080F821200168A9429F
:1006500001D1022219E0514501D1202215E0B14219
:1006600002D14FF4007210E0B94202D14FF40052AF
:100670000BE0594502D14FF4003206E0714502D13A
:100680004FF4001201E04FF00072124908394A603D
:1006900080F82090816A00291AD0BDE8F05F0847F1
:1006A000082505FA0CF5254212D01B0710D50B685A
:1006B00023F00E030B6090F84010C36B02FA01F1B7
:1006C0005960826380F8212080F82090016BE2E776
:1006D000BDE8F09F080002401C00024030000240CC
:1006E00044000240580002406C00024030B528B37C
:1006F00008C8134914221944B1FBF2F18900C163FF
:1007000010498163022141771A6843F6F0718A43E8
:10071000D0E900142143D0E902452C432143046968
:100720002143446921438469214311431960002115
:100730004163012242770177084630BD012030BD78
:10074000F8FFFDBF0000024070B5044690F820009D
:10075000002501280CD0012084F8200094F82160A5
:100760000020012E06D084F820000225284670BD06
:10077000022070BD022684F82160A063206806680C
:1007800026F0010606602046FFF780FEE06A00289A
:100790002068016802D041F00E0106E021F004015A
:1007A00001602068016841F00A0101602068016869
:1007B00041F001010160D9E770B5044600F0FEF890
:1007C0000546601C02D004480078044400F0F6F8A6
:1007D000401BA042FAD370BD140000202DE9F84F51
:1007E000DFF8B8910024A9F1040B23460F2709F183
:1007F000040AABF1040EC9E00125A5402A40AA4233
:100800007DD1674ED1F804C0ACEB0608B44532D0B8
:1008100014DCBCF1030F3AD009DCBCF1000F2AD084
:10082000BCF1010F1CD0BCF1020F31D11DE0BCF1B5
:10083000110F17D0BCF1120F2AD119E0B8F5881F9B
:1008400019D006DCB8F5803F15D0B8F5801F1FD150
:1008500011E0B8F5001F0ED0B8F5041F18D10AE05A
:10086000CB6815E0CB681B1D12E0CB6808330FE0A6
:10087000CB680C330CE08B682BB1012B4FF00803D5
:1008800003D0456104E0042302E0056100E0002399
:10089000FF2A01D8064601E000F104064FEA84056C
:1008A00001D9A5F12005D6F8008007FA05FC28EA51
:1008B0000C0803FA05F548EA0508C6F800804D68FB
:1008C000ED0062D5374DAE6946F00106AE61AD6907
:1008D00024F0030605F001050095334D06EB050CE9
:1008E000DCF80850A607360F07FA06F825EA0805CF
:1008F000DFF8B880404503D14FF0000817E044E02E
:10090000DFF8AC80404502D14FF001080FE0DFF87E
:10091000A480404502D14FF0020808E0DFF898803B
:10092000404502D14FF0030801E04FF0040808FAF7
:1009300006F848EA0508CCF808804D68D9F8006048
:10094000ED024D4601D5164300E096432E604D68FA
:10095000DAF80060AD02554601D5164300E0964333
:100960002E604D68DBF80060AD035D4601D516438F
:1009700000E096432E604D68DEF80060ED0375469A
:1009800001D5164300E096432E60641C0D682A468C
:10099000E5407FF431AFBDE8F88F00000804014066
:1009A000000011100010024000000140000801404A
:1009B000000C014000100140001401400148806813
:1009C000704700001400002002488168027811443A
:1009D0008160704714000020074810B5016841F09D
:1009E00010010160032000F095F80F2000F006F8D8
:1009F00000F03EF8002010BD0020024000B5014686
:100A000087B00022192000F065F8192000F054F892
:100A10001348816941F400618161806905A900F48E
:100A200000600690684600F01DF900F04BF90D4992
:100A30000D4AB0FBF1F10D48491E0260416040F2E1
:100A4000E7320021C0E90321816000F037FB10B1DB
:100A5000012007B000BD054800F07CFBF9E700006D
:100A60000010024040420F00002C0140F00A00201C
:100A70000F4808B5816941F001018161816901F088
:100A800001010091C16941F08051C161C06900223A
:100A900000F0805000900F21901E00F01BF80548D8
:100AA000416821F0E06141F00071416008BD000043
:100AB0000010024000000140002809DB00F01F0286
:100AC000012191404009800000F1E020C0F80011B0
:100AD00070470000F0B40E4B1B680C46C3F30223B2
:100AE000C3F10705042D00D90425191D072901D2DA
:100AF000002300E0DB1E012606FA05F1491E214015
:100B000099409E40761E16403143F0BC01F073BD03
:100B10000CED00E0064900F0070208684FF6FF03FD
:100B2000184040EA0220034A104308607047000062
:100B30000CED00E00000FA052DE9F0470F46050036
:100B400061D0434E306800F00700B84209D23068E7
:100B500020F0070038433060306800F00700B842EA
:100B600051D128683B4C810712D5400703D56068F6
:100B700040F4E06060602878000703D5606840F4C6
:100B8000605060606068A96820F0F0000843606011
:100B90002878C00728D06868012810D0216802286A
:100BA00010D0890700292EDA616821F00301014382
:100BB0006160FFF703FF804641F288390DE021684C
:100BC0008903EFE78901EDE7FFF7F8FEA0EB0801E5
:100BD000494502D90320BDE8F0876068696800F0E4
:100BE0000C00B0EB810FEFD1306800F00700B84285
:100BF0000BD9306820F0070038433060306800F0CF
:100C00000700B84201D00120E5E72878400705D564
:100C10006068E96820F4E0600843606028780007B5
:100C200006D56068296920F4605040EAC100606020
:100C300000F058F86168084AC1F30311515CC840DC
:100C40000649086006480068FFF7D8FE0020C2E7A2
:100C500000200240001002407234000820000020F2
:100C6000180000200F2202600C4A536803F00303AF
:100C70004360536803F0F0038360536803F4E06358
:100C8000C36052684FF4E06303EAD2020261044891
:100C9000006800F007000860704700000010024084
:100CA000002002400448054900684968044AC1F32D
:100CB0000221515CC8407047200000200010024013
:100CC000823400080448054900684968044AC1F3B1
:100CD000C221515CC8407047200000200010024033
:100CE000823400080E4A51680E4801F00C03042BB0
:100CF00011D0082B0FD10C48C1F38343C903C05C4A
:100D00000AD55168084AC1F34041921E515C054A18
:100D10005043B0FBF1F0704704494843704700006E
:100D20000010024000127A006234000800093D0001
:100D30002DE9F84F040070D02078C04DC00749D08D
:100D40006868C0F38100012807D06868C0F381009B
:100D5000022809D16868C00306D52868800339D500
:100D600060680028E7D035E06068B0F5803F0BD0C0
:100D700010B1B0F5A02F11D0286820F48030286081
:100D8000286820F4802002E0286840F48030286041
:100D9000606890B1FFF712FE06460AE0286840F44A
:100DA00080202860F0E700BFFFF708FE801B642862
:100DB00073D828688003F7D50CE0FFF7FFFD0646DF
:100DC00005E000BFFFF7FAFD801B6428F0D8286813
:100DD0008003F7D420789A4E80074FF001094FF036
:100DE000000839D5686810F00C0F07D06868C0F3A8
:100DF0008100022809D16868C00306D428688007EA
:100E000014D52069012808D110E02069B0B1C6F8D6
:100E10000090FFF7D3FD074605E00AE1FFF7CEFD9E
:100E2000C01B0228C4D828688007F7D528686169E4
:100E300020F0F80040EAC10028600DE0C6F800800C
:100E4000FFF7BCFD074604E0FFF7B8FDC01B022812
:100E500023D828688007F7D4207800072CD5794854
:100E6000A169D9B1C0F80090FFF7A8FD074604E0DA
:100E7000FFF7A4FDC01B02280FD8686A8007F7D5CA
:100E800071484FF4FA510068B0FBF1F0009000BFD8
:100E90000098411E0091FAD20EE080E0C0F8008078
:100EA000FFF78CFD074604E0FFF788FDC01B022812
:100EB00075D8686A8007F7D42078400760D5E8695C
:100EC0000027C00008D4E86940F08050E861E86974
:100ED000012700F0805000905C480168C90513D4D8
:100EE0000168834641F480710160FFF767FD824627
:100EF00006E000BFFFF762FDA0EB0A0064284ED8B1
:100F0000DBF80000C005F5D5E06801280AD008B17B
:100F1000052813D0286A20F001002862286A20F0F2
:100F2000040002E0286A40F001002862E06841F213
:100F3000883B98B1FFF742FD82460BE0286A40F0FB
:100F400004002862EEE700BFFFF738FDA0EB0A01BE
:100F500059455AD8286A8007F6D50CE0FFF72EFDD0
:100F6000824605E0FFF72AFDA0EB0A0159454CD85F
:100F7000286A8007F6D41FB1E86920F08050E86144
:100F8000E06988B36968C1F38101022944D002286D
:100F9000C6F8608004D0FFF711FD044638E034E065
:100FA000FFF70CFD074604E0FFF708FDC01B022811
:100FB0002BD828688001F7D4206AB0F5803F05D18E
:100FC0006868A16820F4003008436860D4E908012B
:100FD0000843696821F4741108436860C6F860909A
:100FE000FFF7ECFC044606E025E000BFFFF7E6FC57
:100FF000001B022809D828688001F7D51BE000BF34
:10100000FFF7DCFC001B022802D90320BDE8F88FA3
:1010100028688001F4D40EE00128F7D06868226ABD
:1010200000F48031914204D1616A00F4701088426A
:1010300001D00120EAE70020E8E7000000100240AC
:101040000000424280044242200000200070004024
:101050007047704770B590F83C20012A26D00124D3
:1010600080F83C40022280F83D2003685A689D6861
:1010700022F070060A6832435A600D4B02689A42A9
:1010800008D0B2F1804F05D00A4B9A4202D00A4BE9
:101090009A4204D1496825F080031943916080F891
:1010A0003D40002180F83C10084670BD022070BD14
:1010B000002C0140000400400008004010B504006E
:1010C00003D094F83D0010B107E0012010BD0020CE
:1010D00084F83C00204600F01FF8022084F83D0010
:1010E000211D206800F01CFF012084F8460084F8D0
:1010F0003E0084F83F0084F8400084F8410084F802
:10110000420084F8430084F8440084F8450084F8E1
:101110003D00002010BD000008B501680B48B1F18A
:10112000804F0BD00A4A914207D1C16941F00401B6
:10113000C161C06900F00400009008BDC16941F0C0
:101140000101C161C06900F00100F5E70010024033
:101150000008004090F83D10012901D0012070479F
:10116000022180F83D100168CA6842F00102CA609D
:1011700000680B49884208D0B0F1804F05D009497A
:10118000884202D00849884204D1816801F00701F1
:10119000062903D0016841F0010101600020704779
:1011A000002C0140000400400008004070B50446D7
:1011B00090F83C000025012817D0012684F83C60F7
:1011C000022084F83D002068826822F0770222F431
:1011D0007F4282600868502838D00DDC20284FD02C
:1011E00005DC90B3102811D14AE0022070BD3028F0
:1011F00046D040280AD13BE060282FD070280DD07F
:10120000B0F5805F03D0B0F5005F12D0012584F8FF
:101210003D60002084F83C00284670BDCB68D1E9D1
:101220000121206800F0BFFE2068816841F077014D
:1012300009E0CB68D1E90121206800F0B4FE206804
:10124000816841F480418160E1E719E0CA6849683A
:10125000206800F05DFF5021206806E0CA684968F8
:10126000206800F066FF6021206800F0A6FECEE74F
:10127000CA684968206800F04BFF40212068F4E705
:10128000226801461046F0E7704770B504460068D2
:1012900001694FF00005C943890715D4C168C943E6
:1012A000890711D4E91E0161012020772068806937
:1012B0008007204602D0FFF7E7FF04E000F0DCF8EB
:1012C000204600F06EF9257720680169C943490777
:1012D00017D4C168C943490713D46FF004010161F1
:1012E000022020772068806910F4407F204602D0D9
:1012F000FFF7CAFF04E000F0BFF8204600F051F904
:10130000257720680169C943090716D4C168C94314
:10131000090712D46FF008010161042020772068CA
:10132000C0698007204602D0FFF7AEFF04E000F05E
:10133000A3F8204600F035F9257720680169C943F4
:10134000C90617D4C168C943C90613D46FF0100188
:101350000161082020772068C06910F4407F204692
:1013600002D0FFF791FF04E000F086F8204600F07D
:1013700018F9257720680169C943C90708D1C168F0
:10138000C943C90704D1891E0161204600F058F9FC
:1013900020680169C943090609D4C168C94309061F
:1013A00005D46FF0800101612046FFF751FE2068EF
:1013B0000169C943490609D4C168C943490605D42E
:1013C0006FF040010161204600F044F92068016996
:1013D000C94389060BD4C168C943890607D46FF095
:1013E000200101612046BDE87040FFF732BE70BDAC
:1013F00010B586B00021009101910291039103681C
:10140000194902221948B3F1804F14D0184CA34255
:101410000FD18B6943F008038B618969039201F056
:10142000080104914FF47071CDE900126946FFF78D
:10143000D5F906B010BD8B6943F008038B6189694B
:10144000039201F0080104910821CDE900126946D8
:10145000FFF7C4F90748416821F4407141F0E061A9
:1014600041F480714160E4E700100240000C01404B
:101470000008004000000140704770B5044690F835
:101480003C0000260D4601280FD0012084F83C00C6
:101490006AB1042A1DD0082A2FD00C2A3FD0012679
:1014A000002084F83C00304670BD022070BD2068EA
:1014B00000F08CFD2068816941F00801816120689D
:1014C000816921F004018161206881692A691143E1
:1014D00011E0206800F0A2FD2068816941F40061FC
:1014E00081612068816921F480618161206881695E
:1014F0002A6941EA02218161D2E7206800F0BAFD41
:101500002068C16941F00801C1612068C16921F00A
:101510000401C1612068C1692A69114311E0206892
:1015200000F0D4FD2068C16941F40061C161206808
:10153000C16921F48061C1612068C1692A6941EAF9
:101540000221C161ACE710B5040003D094F83D005E
:1015500010B107E0012010BD002084F83C002046B7
:1015600000F01EF8022084F83D00211D206800F0E4
:10157000D7FC012084F8460084F83E0084F83F0040
:1015800084F8400084F8410084F8420084F8430065
:1015900084F8440084F8450084F83D00002010BD24
:1015A0007047704710B50446022249B104290ED095
:1015B000082913D094F84100012816D0012010BD4D
:1015C00094F83E000128F9D184F83E200FE094F809
:1015D0003F000128F2D184F83F2008E094F8400051
:1015E0000128EBD184F8402001E084F84120012259
:1015F000206800F0CBFC0F492068884203D1426C80
:1016000042F4004242642068884208D0B0F1804F22
:1016100005D00949884202D00849884204D181682E
:1016200001F00701062903D0016841F001010160C2
:10163000002010BD002C01400004004000080040C4
:1016400000680349884201D1FFF7BEB97047000026
:10165000002C01407047704710B50446006840698F
:1016600094F84110C0F3C010212911D180B1206835
:10167000143050E8001F21F0800140E80012002AD9
:10168000F5D1A06B08B1FEF718FF204600F02FFE41
:101690002068406994F84210C0F38010222911D1CB
:1016A00080B12068143050E8001F21F0400140E86C
:1016B0000012002AF5D1E06B08B1FEF7FEFE2046CD
:1016C00000F0EEFD002010BD70470000F8B5016885
:1016D00004460868CA684B6910F00F0F4FF0000508
:1016E00059D003F0010602F49077374365D0C10763
:1016F00005D0D10503D5616C41F00101616441075A
:1017000005D5D90703D0616C41F0020161648107FE
:1017100005D5D90703D0616C41F00401616401076C
:1017200007D502F02001314303D0616C41F008017C
:101730006164616C00293AD0800604D5900602D518
:10174000204600F0E2FD20684069616CC0F3801023
:10175000090700D460B3204600F0A2FD206840696C
:10176000400621D52068143050E8001F21F04001C8
:1017700040E80012002AF5D1E06BA8B16D49416341
:10178000E06BFEF7BDFE002811D0E06B416B01B0AD
:10179000BDE8F040084783060FD593060DD52046D7
:1017A000BDE8F84000F0B1BD2046FFF78DFFF8BD61
:1017B0002046FFF789FF6564F8BD266B2023012EC4
:1017C0007CD1C6067AD5D60678D5086848680090D8
:1017D00048694FF00206400640D5E16B0868406852
:1017E0000004000CE8D0A28D8242E5D9E08588692A
:1017F00020282DD020680C3050E8001F21F4807183
:1018000040E80012002AF5D12068143050E8001F8B
:1018100021F0010140E80012002AF5D120681430BF
:1018200050E8001F21F0400140E80012002AF5D1E5
:1018300084F84230256320680C3050E8001F21F006
:10184000100140E80012002AF5D1E06BFEF735FEEA
:101850006663A08DE18D401A81B22AE0A08DE18DF2
:10186000401A81B2E08D0028A6D00029A4D02268B9
:101870000C3252E8000F20F4907042E80007002F6D
:10188000F5D12068143050E8002F22F0010240E822
:101890000027002FF5D184F84230256320680C30F2
:1018A00050E8002F22F0100240E80023002BF5D171
:1018B00066632046FFF7CFFEF8BDFFE705062BD590
:1018C000150629D594F841002128F5D1A068B0F576
:1018D000805F01D12069B0B1206A411C216221687A
:1018E00000784860E08C401E0004000CE084E3D1E6
:1018F0002068C16821F08001C1602068C16841F0A2
:101900004001C160D8E7206A0088C0F30800486041
:10191000206A801C2062E5E74006CDD55006CBD575
:10192000CA68204622F04002CA6084F8413000F0C4
:1019300049F9C1E75721000870B5040004D094F8B4
:101940004100002510B106E0012070BD84F8405030
:10195000204600F023F8242084F841002068C16864
:1019600021F40051C160204600F030FD206801697B
:1019700021F4904101612068416921F02A0141610F
:101980002068C16841F40051C1606564202084F87A
:10199000410084F842006563002070BD2DE9F043EA
:1019A00085B00025009501950295039504460368CE
:1019B0005848DFF85CC102210322071580264FF04A
:1019C000100863454DD1836943F480438361836983
:1019D00003F480430493836943F0040383618069C3
:1019E000DFF8349100F0040004900802CDE9000112
:1019F000039269464846FEF7F1FECDE90075694657
:101A000048460295FEF7EAFE454F4448C7E90005FF
:101A1000C7E902563D617D61BD613846FD61FEF753
:101A200065FE08B1FEF748FDE7637C623C4F3B482A
:101A300044371438C7E902563D617D61BD61FD61DF
:101A4000C7E900083846FEF751FE08B1FEF734FD3D
:101A5000A7630022052125207C62FFF73BF82520A3
:101A600051E0DFF8C0C063454FD1C36943F4802320
:101A7000C361C36903F480230493836943F00803BB
:101A800083618069CDE9007100F00800CDE9032091
:101A9000254F69463846FEF7A1FEF814CDE900054A
:101AA000694638460295FEF799FE1D4F1B48883758
:101AB0002838C7E90005C7E902563D617D61BD616F
:101AC0003846FD61FEF712FE08B1FEF7F5FCE7634C
:101AD0007C62134F1148CC373C38C7E902563D6150
:101AE0007D61BD61FD61C7E900083846FEF7FEFD76
:101AF00008B1FEF7E1FCA7630022052127207C62E4
:101B0000FEF7E8FF2720FEF7D7FF05B0BDE8F0831A
:101B10000038014000100240000801405800024017
:101B2000E009002000480040000C014090F84230DD
:101B3000202B01D00220704721B11AB1002303638A
:101B400000F0A0BC012070477047704770B5044694
:101B500090F84100202801D0022070BD49B342B363
:101B60002162A284E28400206064212384F8413051
:101B7000A56B114BAB62A56B104BEB62A56B104BC9
:101B80002B63A36B5863256813462A1DA06BFEF7D1
:101B9000DBFD21686FF0400008602068143050E8D9
:101BA000001F41F0800140E80012002AF5D100201A
:101BB00070BD012070BD000055220008972200086A
:101BC0006721000870477047FEE70000154808B518
:101BD000416941F0010141614069002200F00100CA
:101BE000009005210C20FEF775FF0C20FEF764FF26
:101BF000002205210D20FEF76DFF0D20FEF75CFF92
:101C0000002205210E20FEF765FF0E20FEF754FF8F
:101C1000002205210F20FEF75DFFBDE808400F20E0
:101C2000FEF74ABF0010024010B596B01C221149C1
:101C30006846FEF75AFB0021684600F0ACFD0E4CEA
:101C40000C491C2220601C3107A8FEF74EFB002126
:101C500007A800F0A0FD074960601C2238310EA8DB
:101C6000FEF743FB00210EA800F095FDA06016B022
:101C700010BD00000C340008080000200D4808B515
:101C8000816941F020018161816901F020010091A9
:101C9000816941F008018161816901F008010091C9
:101CA000816941F004018161806900F004000090C5
:101CB00008BD00000010024010B58EB0002407944B
:101CC000089409940A940B941C2168460C94FEF71E
:101CD00060FB1E484FF08041016041F61F41C0E9A2
:101CE0000114C721C0E903148461FFF7E7F908B1C3
:101CF000FEF7E2FB4FF48050079007A91348FFF767
:101D000055FA08B1FEF7D8FB1048FFF71CFC08B1E4
:101D1000FEF7D2FB0B940BA90C480C94FFF79AF931
:101D200008B1FEF7C9FB602000900F20CDE9010447
:101D30000422694605480494FFF79FFB08B1FEF7AB
:101D4000BBFB0248FFF754FB0EB010BDC0080020DB
:101D500010B58EB000240794089409940A940B944B
:101D60001C2168460C94FEF714FB2B48294901609E
:101D700041F61F41C0E90114C721C0E90314846181
:101D8000FFF79CF908B1FEF797FB4FF480500790DE
:101D900007A92148FFF70AFA08B1FEF78DFB1E4894
:101DA000FFF7D1FB08B1FEF787FB0B940BA91A488C
:101DB0000C94FFF74FF908B1FEF77EFB602000900E
:101DC0000F20CDE901040022694613480494FFF76F
:101DD00054FB08B1FEF770FB042269460E48FFF77A
:101DE0004CFB08B1FEF768FB082269460A48FFF77A
:101DF00044FB08B1FEF760FB0C2269460648FFF77A
:101E00003CFB08B1FEF758FB0348FFF7F1FA0EB0B0
:101E100010BD000000080040080900200C4810B563
:101E20000A4901604FF4E1314160002181600C22D8
:101E3000C160C0E904128161C161FFF77DFD002826
:101E400003D0BDE81040FEF737BB10BD003801409D
:101E5000500900200C4810B50A4901604FF4E131E7
:101E60004160002181600C22C160C0E904128161DF
:101E7000C161FFF761FD002803D0BDE81040FEF707
:101E80001BBB10BD0048004098090020FEE77047CA
:101E9000012000F061FCFBE710B5502080F31188B1
:101EA000BFF34F8FBFF36F8F01F084F918B104496E
:101EB0004FF080500860002080F3118810BD0000B2
:101EC00004ED00E030B58FB028216846FEF761FAD6
:101ED00014210AA8FEF75DFA01210804CDE90010DB
:101EE0000024029402250491CDE907504FF4E0103C
:101EF00009906846FEF71CFF0F20CDE90A0568022D
:101F0000CDE90C4002210AA80E94FEF715FE0FB091
:101F100030BD70470148FFF7B8B90000F00A002053
:101F2000F0B50268164B174C174D4FF0804798429A
:101F300005D0B84203D0A04201D0A84203D122F07C
:101F400070064A683243984205D0B84203D0A04296
:101F500001D0A84203D122F44074CA6822434C69DC
:101F600022F08002224302608A68C2620A688262AA
:101F7000984201D10969016301214161F0BD00006E
:101F8000002C0140000400400008004010B501F0A2
:101F90001F030121046A99408C430462016A9A403C
:101FA0001143016210BD10B5846842EA032224F493
:101FB0007F440A432243826010BD826822F070028F
:101FC0000A4342F0070181607047000030B5036AA0
:101FD000026A22F0010202624268846924F07305F9
:101FE0000C682C4323F002058B682B430A4DA84252
:101FF0000BD123F00805CB6822F440722B434D69C6
:1020000023F0040315438A692A43426084614968C6
:102010004163036230BD0000002C014030B5026A0C
:10202000036A23F010030362436884690D6824F493
:10203000E64444EA05248D6822F0200242EA0512B3
:102040000B4DA8420ED1CD6822F0800242EA051263
:102050004D6923F4406343EA85038D6922F0400211
:1020600043EA85034360846149688163026230BD4D
:10207000002C014030B5036A026A22F480720262C9
:102080004268C46923F4007324F073050C682C4380
:102090008D6843EA05230C4DA8420ED1CD6823F488
:1020A000006343EA05234D6922F4405242EA0512D7
:1020B0008D6923F4806342EA05124260C461496875
:1020C000C163036230BD0000002C014030B5046ADA
:1020D000026A22F4805202624268C3690D6823F4E6
:1020E000E64343EA05238D6824F4005444EA0534AA
:1020F000064DA84204D14D6922F4804242EA85127D
:102100004260C36149680164046230BD002C014033
:1021100010B5036A046A24F001040462846924F09F
:10212000F00444EA021423F00A020A4384610262C2
:1021300010BD10B5036A046A24F0100404628469B7
:1021400023F0A00324F4704444EA023243EA01116C
:102150008261016210BD10B5406A0021C185C18451
:10216000FFF7B2FA10BD70B5446A2068406994F870
:102170004110C0F3C0100025212904D118B1E58415
:10218000204600F0B4F82068406994F84210C0F38B
:102190008010222904D118B1E585204600F080F88E
:1021A000606C40F0100060642046FFF78DFA70BD4F
:1021B00010B50146406A096809684FF000028906B7
:1021C0002ED4C28501680C3151E8003F23F480739E
:1021D00041E80034002CF5D10168143151E8003F8A
:1021E00023F0010341E80034002CF5D101681431DB
:1021F00051E8003F23F0400341E80034002CF5D1C2
:10220000202180F84210016B012909D101680C31AD
:1022100051E8003F23F0100341E80034002CF5D1D1
:102220004263016B012902D0FFF78EFC10BD818D46
:10223000FFF711FA10BD10B5406A01214163016B2F
:10224000012902D0FFF781FC10BD818D4908FFF7FD
:1022500002FA10BD10B50146406A0968096889068E
:1022600016D40021C1840168143151E8002F22F0F6
:10227000800241E80023002BF5D101680C3151E8C0
:10228000002F42F0400241E80023002BF5D110BDA1
:10229000FFF798FC10BD10B5406AFFF794FC10BD25
:1022A00001680C3151E8002F22F4907241E80023BC
:1022B000002BF5D10168143151E8002F22F0010202
:1022C00041E80023002BF5D1016B012909D10168F8
:1022D0000C3151E8002F22F0100241E80023002BBE
:1022E000F5D1202180F84210002101637047016878
:1022F0000C3151E8002F22F0C00241E80023002BEE
:10230000F5D1202180F84110704708B590F84210AF
:10231000222901D0022008BD82684FF480539A42DE
:1023200001D1016921B1816A9A421BD04AB10AE008
:102330000268816A5268C2F308020A80816A891CB5
:1023400008E0026972B10268526802F07F020A7006
:10235000816A491C8162C18D491E0904090CC1852D
:1023600003D01BE002685268F1E70168CA6822F0F6
:102370002002CA600168CA6822F48072CA600168DB
:102380004A6922F001024A61202180F842100021AE
:102390004163026B012A03D0FFF7D6FB002008BD82
:1023A000016301680C3151E8002F22F0100241E86E
:1023B0000023002BF5D101680A68D20602D50A680D
:1023C00049680091818DFFF746F9E7E770B504464B
:1023D00000680169E26821F44051114301612169FB
:1023E000A0680843616908432168CA6841F20C6328
:1023F0009A430243CA6020684169A26921F440718E
:10240000114341611E492068884202D1FEF75AFCFF
:1024100001E0FEF747FC00EBC00101EB0012606831
:1024200064218000B2FBF0F3B3FBF1F36FF0180608
:102430007343B2FBF0F5B2FBF0F605EB83053223F4
:1024400003EB0515B5FBF1F5B6FBF1F605F0F0056C
:1024500005EB0615B2FBF0F6B2FBF0F0B0FBF1F0C5
:102460006FF01802504306EB800003EB0010B0FB46
:10247000F1F0216800F00F002844886070BD000072
:102480000038014038B58162044682850020134639
:102490006064222284F84220E56B1B4AAA62E56B45
:1024A0001A4AEA62E56B1A4A2A63E26B50630A46EB
:1024B0002168E06B091DFEF747F920680168406854
:1024C0000090206948B120680C3050E8001F41F4AA
:1024D000807140E80012002AF5D12068143050E8DD
:1024E000001F41F0010140E80012002AF5D12068E8
:1024F000143050E8001F41F0400140E80012002A6B
:10250000F5D1002038BD0000B121000837220008B5
:102510006721000810B50448FFF7D8F8BDE810405F
:10252000014800F02DB800005009002010B5044803
:10253000FFF7CCF8BDE81040014800F021B80000DA
:102540009809002010B5044600680A49884202D064
:10255000094988420DD1094800F068FBF32107487A
:10256000FDF7F5FE2046BDE81040F3220349FFF7D2
:10257000DDBA10BD00380140004800408204002050
:1025800038B5016804460868C043C0060AD4086824
:10259000486800902046FFF75FF82046BDE83840C5
:1025A000FFF7D0BF38BD00000F4808B500680168CC
:1025B00041680091C16841F01001C160F3220B49EC
:1025C0000948FFF7B3FA0A480068016841680091BA
:1025D000C16841F01001C160BDE80840F322034921
:1025E0000348FFF7A3BA000050090020820400202E
:1025F00098090020FEE70907090E002804DB00F116
:10260000E02080F80014704700F00F0000F1E02097
:1026100080F8141D7047EFF30580002800D00120DA
:10262000704700002DE9F0411848017803292AD1AC
:10263000174D0026804600BF06EB460108EBC10798
:10264000B86910F0FF4F1BD15FF0000407EB840066
:10265000406800F075FE25F81400641C052CF5DBBD
:102660004FF08041688988630A49A8890860091D7C
:10267000E8890860091D288A0860091D688A0860C1
:10268000761C0A2ED8DBBDE8F0810000750500201D
:10269000840000203408004010B516210748FDF7DB
:1026A00056FE4FF080410F20886305490860091DE0
:1026B0000860091D0860091D086010BD8400002025
:1026C0003408004008B500F05AF80090FFF7E4FF26
:1026D00000F040FBFFF7A6FF00F05CFB022168461C
:1026E00000F041F8F4E70000FEF776F9FFF7EAFBA7
:1026F000FFF7C4FAFFF7E0FAFFF768FAFFF78EFB7F
:10270000FFF726FBFFF7A6FB04210E48FEF74AFF62
:1027100000210D48FEF746FF04210B48FEF742FF5B
:1027200008210948FEF73EFF0C210748FEF73AFF53
:10273000FFF73AFF6420FEF73FF8FFF775FA00F065
:1027400019F8FEE7C0080020080900200146002013
:10275000842900D0C81C704710B500B9012000F0D2
:1027600097FB002010BD10B501B9012100F0B6FBA8
:10277000002010BD10B500F0F7FB002010BD10B513
:10278000FFF749FF18B1BDE8104000F00BBDBDE8F0
:10279000104000F001BD7FB50D4604464169B0F917
:1027A000080081B1A16971B1FFF7D0FFD4E905122A
:1027B0008DE80700D4E900102B46226900F0C1FC27
:1027C000039004B070BDFFF7C1FF03A9CDE900017C
:1027D000208A2B4682B2D4E9001000F085FC012843
:1027E00001D00020EDE70398EBE700002DE9F04170
:1027F000184C0F46054666692068001D00F05AFA1D
:1028000038B9206890F82C1001208840A1698143D4
:10281000A161681C07D137B12168BDE8F0410E48BD
:10282000091D00F08BBA20683544B5424560216827
:1028300005D2A068BDE8F041091D00F067BA6068E4
:10284000091D00F063FA206B854200D22563BDE8C4
:10285000F081000024000020140C00202DE9F0413C
:10286000054600F077FA2E4C2069401C2061206854
:102870002C4F10B1E06940B32DE02560206901289C
:1028800029D1002606EB860007EB800000F030FA25
:10289000761C072EF6D323488C3000F029FA214805
:1028A000A03000F025FA1F48B43000F021FA1D488E
:1028B000C83000F01DFA1B48DC3000F019FA194846
:1028C0008C3060601430A06005E02068E96AC06A5E
:1028D000884200D82560E06A401CE062E96A012075
:1028E000A26988401043A06101EB810007EB8000E2
:1028F000291D00F023FA00F04DFAE06900280CD001
:102900002068E96AC06A884207D207494FF08050C0
:102910000860BFF34F8FBFF36F8FBDE8F0810000F9
:1029200024000020380B002004ED00E010B5044620
:1029300090F8510058B101280CD002280FD0502037
:1029400080F31188BFF34F8FBFF36F8FFEE7206BCB
:1029500000F034FA2046BDE8104000F02FBA10BD58
:1029600010484FF44061420706D0C01D0D4920F0C9
:102970000700411AC1F540610B4A00230144C2E936
:1029800000030839103A21F0070111604B600B6019
:102990000B1AC0E9001393604FF000405360D06001
:1029A00070470000280C002070000020144E154CC9
:1029B000A6F1C8074FF08058DFF84C9012E000BF36
:1029C00000F0C8F9F068C568281D00F073F92069A7
:1029D000401E2061E068401EE06000F0DBF9284600
:1029E000FFF7A4FFE0680028EAD138680128F9D988
:1029F000C9F80080BFF34F8FBFF36F8FF2E700007D
:102A0000000C00202400002004ED00E02DE9F04738
:102A10009A46DDE9098481466FF00303206B03EBDE
:102A200082021044089D20F00706700707D050204E
:102A300080F31188BFF34F8FBFF36F8FFEE723182A
:102A40000A5C83F834200A5C12B1401C1028F6D3CB
:102A5000002784F84370072D00D30625E562C4E9FA
:102A60001157201D00F04FF904F1180000F04BF948
:102A70002461C5F107006462A061E76484F85070C6
:102A800052464946304600F0BFF82060B8F1000FCA
:102A900001D0C8F80040BDE8F087000030B511490A
:102AA00000E011460A688242FBD34B685C188442FE
:102AB00003D1406818444860084643681C18944293
:102AC00009D1084C103C2468A24209D052681A442B
:102AD00042600A6812680260814200D0086030BD1E
:102AE0000460F9E77000002006484168096829B1D0
:102AF0004168C968C9684968016370474FF0FF3190
:102B0000FAE700002400002008484068401C4FF00D
:102B1000500080F3118804D0BFF34F8FBFF36F8F45
:102B2000FEE7BFF34F8FBFF36F8FFEE77800002003
:102B30002DE9F0410546002700F04CFA314E30688F
:102B400008B9FFF70DFFF06805424BD1C5B3083552
:102B500068070ED005F00700C0F1080005446807BB
:102B600007D0502080F31188BFF34F8FBFF36F8FD2
:102B7000FEE72DB37068854234D8224810300146F4
:102B80000C6801E020460C466168A94202D2216827
:102B90000029F7D131688C4224D007682168016090
:102BA00060680837411B10290FD96019420708D007
:102BB000502080F31188BFF34F8FBFF36F8FFEE774
:102BC00010E041606560FFF769FF61687068401A56
:102BD0007060B268904200D2B060F068014300209B
:102BE000C4E9000100F04AFB780707D0502080F3C9
:102BF0001188BFF34F8FBFF36F8FFEE73846BDE8F4
:102C0000F08100006000002010B5031F4FF08074B9
:102C10001C601B1F21F001011960191F024B0B6082
:102C2000143940380A6010BD092B000810B50C4C4F
:102C30000146F322A01CFDF713FBA078CC2801D09D
:102C400000200BE0E078FF2801D0012006E094F896
:102C5000F400AA2801D0022000E00320207010BD5B
:102C60007505002008B5FFF78AFD0F4C0090002085
:102C70002060CC25FF26AA27DFF8308000F06AF814
:102C800025716671E77198F81400A0716068206082
:102C9000042205490648FEF759FF00F07BF80121A0
:102CA0006846FFF760FDE9E700000020840000208F
:102CB00098090020D0E9013201699A60D0E9012326
:102CC0005A604A68824201D182684A6000220261E9
:102CD0000868401E0860086870470000034B0360E6
:102CE00003F1540008608020106070476C060020DB
:102CF00000F108014FF0FF32C0E90112C16001612B
:102D000000210160704700210161704730B50B68F8
:102D10005A1C02D000F1080202E0026904E02246D7
:102D2000546825689D42FAD953684B6099608A605F
:102D3000516008610168491C016030BD42684A6009
:102D400093688B6093685960916008610168491CC1
:102D500001607047502080F31188BFF34F8FBFF39D
:102D60006F8F0A494868401C486001280CD1084808
:102D7000006810F0FF0F07D0502080F31188BFF3D8
:102D80004F8FBFF36F8FFEE7704700007800002081
:102D900004ED00E00849486828B1401E486001D1B0
:102DA00080F311887047502080F31188BFF34F8F54
:102DB000BFF36F8FFEE700007800002070B5002899
:102DC00027D0144DA0F108046168E868014207D1DA
:102DD000502080F31188BFF34F8FBFF36F8FFEE752
:102DE00022683AB1502080F31188BFF34F8FBFF3B0
:102DF0006F8FFEE78143616000F0ECF860686968FE
:102E0000084468602046FFF749FEBDE8704000F0C6
:102E100035BA70BD600000204FF0E0200021016154
:102E2000816105494FF47A720968B1FBF2F1491EDC
:102E300041610721016170472000002010B5FDF7B6
:102E4000EBF9114910280ED300F1E02090F8F003BF
:102E50000A78904207D2502080F31188BFF34F8F39
:102E6000BFF36F8FFEE709480068896800F4E060EF
:102E7000884207D9502080F31188BFF34F8FBFF3EA
:102E80006F8FFEE710BD0000780000200CED00E021
:102E900010B5020014D00F48806B38B1502080F379
:102EA0001188BFF34F8FBFF36F8FFEE700F092F8EA
:102EB00000211046FFF79AFC00F0E0F9002807D146
:102EC00005494FF080500860BFF34F8FBFF36F8FFD
:102ED00010BD00002400002004ED00E070B50D4698
:102EE00004000BD095B11E4A906BB8B1502080F30E
:102EF0001188BFF34F8FBFF36F8FFEE7502080F331
:102F00001188BFF34F8FBFF36F8FFEE7502080F320
:102F10001188BFF34F8FBFF36F8FFEE700F05AF8B1
:102F2000526923685919934204D98B420AD99142B4
:102F300002D807E08B42FAD9881A21600021FFF7F6
:102F400055FC00E0216000F099F9002807D10549FF
:102F50004FF080500860BFF34F8FBFF36F8F70BD8D
:102F60002400002004ED00E010B586B00024039496
:102F700005AA04A903A80494FFF7B0FEDDE9030144
:102F80000094CDE9011000230EA11048059A00F02D
:102F9000D8F80F490028486311D0502080F31188D9
:102FA000BFF34F8FBFF36F8F4FF0FF3008630120E7
:102FB000C8614C6106B0BDE8104000F041B806B0F1
:102FC00010BD000049444C4500000000AD29000838
:102FD000240000200248816B491C81637047000077
:102FE000240000201448816B11B101214162704717
:102FF000002141628169B1FA81F1C1F11F0101EB48
:1030000081020E4951F822306BB101EB820101F1CE
:1030100008034A6852684A609A4201D152684A607D
:10302000D16801607047502080F31188BFF34F8F43
:10303000BFF36F8FFEE7000024000020380B002054
:103040001CB5264908780190FF20087008788DF893
:1030500000009DF800009DF8002000F0F000904274
:1030600007D0502080F31188BFF34F8FBFF36F8FCD
:10307000FEE79DF800001A4B00F050001870072082
:10308000986005E09DF8002052008DF80020401E59
:103090009DF800201206F5D49860032807D0502030
:1030A00080F31188BFF34F8FBFF36F8FFEE74FF4AC
:1030B00040709860019808700A48016841F47001F6
:1030C0000160016841F070410160FFF7A5FE00203A
:1030D0005860FDF76BF800201CBD000000E400E024
:1030E0007800002020ED00E02DE9FF5F8346DDE958
:1030F0000E87994616468A469000FFF719FD05008F
:103100001CD05420FFF714FD040014D000202563C8
:1031100084F85100CDE90240CDE900874B463246A4
:1031200051465846FFF772FC2046FFF797FB0120F7
:1031300004B0BDE8F09F2846FFF740FE4FF0FF3097
:10314000F6E7F0B585B0DDE90B640A9DA6B1DCB108
:10315000542700972663022684F85160002604AFA6
:10316000CDE90246CDE90057FFF750FC2046FFF7B6
:1031700075FB049805B0F0BD502080F31188BFF3B3
:103180004F8FBFF36F8FFEE7502080F31188BFF39E
:103190004F8FBFF36F8FFEE7014840697047000013
:1031A0002400002010B5FFF749FE0148406910BD1A
:1031B000240000202DE9F0412E4C0027A06B40B1E7
:1031C000206A401C2062606A00B101273846BDE8D1
:1031D000F0816669761C666113D16068006838B159
:1031E000502080F31188BFF34F8FBFF36F8FFEE73E
:1031F0006068A1686160A060A06A401CA062FFF7DF
:1032000073FC206BDFF87080864209D36068006829
:1032100080B16068C068C568686886420DD2206366
:103220002068C06A00EB800158F821000128CAD943
:103230000127C8E74FF0FF30F1E7281DFFF73AFDFF
:10324000A86A18B105F11800FFF734FDE86A0121FA
:10325000A26981401143A16100EB800108EB81006C
:10326000291DFFF76BFDE86A2168C96A8842CDD342
:103270000127CBE724000020380B00202DE9F04780
:103280002C4D00242746A86B38B1FFF763FDA86BCF
:10329000401EA863A86B40B146E0502080F311881F
:1032A000BFF34F8FBFF36F8FFEE72969224E0120D6
:1032B000D1B3A6F1B40980463068E8B1F068C468BB
:1032C00004F11800FFF7F6FC201DFFF7F3FCE06A9D
:1032D000AA6908FA00F11143A96100EB800109EB2A
:1032E0008100211DFFF72AFDE06A2968C96A88422A
:1032F000E2D3C5F82480DFE70CB1FFF7F5FB2C6AB9
:1033000044B14646FFF756FF00B16E62641EF9D124
:1033100000202862686A38B1084901273807086028
:10332000BFF34F8FBFF36F8FFFF734FD3846BDE813
:10333000F087000024000020EC0B002004ED00E0EA
:10334000C10DD1F19E0206DB4FEA002343F000439A
:1033500023FA02F07047004207D54FEA4001B1F16D
:10336000FE4F02D24FF00000704710B500F007F892
:1033700049922480002070476FEA200070470EF1C8
:10338000020E2EF0030E5EF8044B244204D44FEAE2
:103390004102B2F17F4F11D84FEA4003B3F17F4FA2
:1033A0000CD80ED14FEAD07CB2F17F4F0CEB4C0C15
:1033B0000CF1020C08BF4CEBD17C04E04FF0080C80
:1033C00001E04FEAD17C0CEB4C0324FA03F404F047
:1033D0000704B4F1040C06D20EEB840CBDE81040D7
:1033E0004CF0010C6047DFE80CF0070802024FF0D8
:1033F0000040A0F5800010BD0846420018BFD2F181
:10340000807288BF00F0004010BD0000A8340008A2
:10341000911E000800000000000000008000000075
:1034200000000000000000008C340008652C00083B
:10343000000000000000000080000000000000000C
:10344000000000009C340008C526000800000000B1
:1034500000000000800000000000000000000000EC
:10346000010202030405060708090A0B0C0D0E0FE2
:103470001010000000000000000001020304060715
:103480000809000000000102030400007573617266
:10349000745F73656E645F5461736B006A6F696E0D
:1034A000745F5461736B000064656661756C74547D
:1034B00061736B00D4340008000000208400000019
:1034C000280100085835000884000020041E000070
:1034D000440100080000000000000000000000009F
:1034E00000000000000000000100000010000000CB
:1034F000000000000024F4000000000000000000B4
:1035000000000000000000000000000000000000BB
:1035100000000000000000000000000000000000AB
:10352000000000000000000000000000000000009B
:10353000000000000000000000000000000000008B
:10354000000000000000000000000000000000007B
:08355000AAAAAAAA00000000CB
:04000005080000ED02
:00000001FF
