:020000040800F2
:10000000381B002021020008AF1E0008C91B000891
:10001000AD1E00085B040008152600080000000063
:10002000000000000000000000000000890100083E
:10003000B704000800000000CD010008B91E000848
:100040003B0200083B0200083B0200083B0200089C
:100050003B0200083B0200083B0200083B0200088C
:100060003B0200083B0200083B0200083B0200087C
:100070005D04000869040008750400088104000894
:100080003B0200083B0200083B0200083B0200085C
:100090003B0200083B0200083B0200083B0200084C
:1000A0003B020008351F00083B0200083B02000825
:1000B0003B0200083B0200083B0200083B0200082C
:1000C0003B0200083B0200083B0200083B0200081C
:1000D0003B020008352500083B0200084D250008BA
:1000E0003B0200083B0200083B02000800F002F857
:1000F00000F03AF80AA090E8000C82448344AAF188
:100100000107DA4501D100F02FF8AFF2090EBAE885
:100110000F0013F0010F18BFFB1A43F0010318473B
:10012000C8440000E8440000103A24BF78C878C1F1
:10013000FAD8520724BF30C830C144BF04680C60ED
:10014000704700000023002400250026103A28BF35
:1001500078C1FBD8520728BF30C148BF0B60704739
:100160001FB51FBD10B510BD00F03DF91146FFF7DA
:10017000F7FF02F023FB00F05BF903B4FFF7F2FF97
:1001800003BC00F063F90000224B19680868B0E86E
:10019000F00F80F30988BFF36F8F4FF0000080F3FA
:1001A00011884EF00D0E70470000000006480068F0
:1001B000006880F3088862B661B6BFF34F8FBFF363
:1001C0006F8F00DF00BF00BF08ED00E0EFF3098094
:1001D000BFF36F8F0F4B1A6820E9F00F106008B55E
:1001E0004FF0500080F31188BFF34F8FBFF36F8F34
:1001F00003F080F84FF0000080F31188BDE808405C
:1002000019680868B0E8F00F80F30988BFF36F8FB2
:10021000704700BF2C000020EFF3058070470000FE
:100220000948804709480047FEE7FEE7FEE7FEE78A
:10023000FEE7FEE7FEE7FEE7FEE7FEE704480549C6
:10024000054A064B70470000331F0008ED00000808
:1002500038150020381B00203817002038170020E0
:10026000032A40F2308010F0030C00F0158011F8E2
:10027000013BBCF1020F624498BF11F801CB00F8BA
:10028000013B38BF11F8013BA2F1040298BF00F80E
:1002900001CB38BF00F8013B11F0030300F02580CB
:1002A000083AC0F0088051F8043B083A51F804CBF2
:1002B000A0E80810F5E7121D5CBF51F8043B40F8B8
:1002C000043BAFF30080D20724BF11F8013B11F8C3
:1002D00001CB48BF11F8012B24BF00F8013B00F807
:1002E00001CB48BF00F8012B704710B5203AC0F091
:1002F0000B80B1E81850203AA0E81850B1E8185027
:10030000A0E81850BFF4F5AF5FEA027C24BFB1E863
:100310001850A0E8185044BF18C918C0BDE81040D4
:100320005FEA827C24BF51F8043B40F8043B08BFDD
:100330007047D20728BF31F8023B48BF11F8012BA4
:1003400028BF20F8023B48BF00F8012B70474FF050
:1003500000020429C0F0128010F0030C00F01B8092
:10036000CCF1040CBCF1020F18BF00F8012BA8BFA0
:1003700020F8022BA1EB0C0100F00DB85FEAC17C64
:1003800024BF00F8012B00F8012B48BF00F8012B17
:1003900070474FF0000200B5134694469646203948
:1003A00022BFA0E80C50A0E80C50B1F12001BFF42E
:1003B000F7AF090728BFA0E80C5048BF0CC05DF894
:1003C00004EB890028BF40F8042B08BF704748BFE2
:1003D00020F8022B11F0804F18BF00F8012B704756
:1003E000704770477047754600F02CF8AE46050020
:1003F0006946534620F00700854618B020B5FFF740
:100400001DFFBDE820404FF000064FF000074FF001
:1004100000084FF0000B21F00701AC46ACE8C00922
:10042000ACE8C009ACE8C009ACE8C0098D4670472B
:1004300010B50446AFF300802046BDE81040FFF73A
:100440009CBE000000487047D814002001491820C5
:10045000ABBEFEE7260002007047FEE7014800F051
:100460009BB800005C070020014800F095B8000030
:1004700018070020014800F08FB80000D4060020C3
:10048000014800F089B800009006002030B590F8CF
:1004900040500124AC40C56B6C60046863604368E5
:1004A000102B036803D099600068C26030BD9A6069
:1004B0000068C16030BD7047704710B590F82110DA
:1004C0000022022905D00421816380F82020012028
:1004D00010BD01680B6823F00E030B6001680B6808
:1004E00023F001030B6090F84030C46B012101FA46
:1004F00003F3636080F8211080F82020104610BDBF
:1005000010B590F821100024022903D00421816342
:1005100001243DE001680A6822F00E020A600168C9
:100520000A6822F001020A601A4A0168914201D168
:10053000012121E0174A1432914201D110211BE020
:10054000144A2832914201D1891515E0114A3C32F2
:10055000914201D189140FE00E4A5032914202D1EA
:100560004FF4803108E00B4A6432914202D14FF4DB
:10057000801101E04FF08071064A083A5160012174
:1005800080F82110002180F82010416B01B18847CC
:10059000204610BD080002402DE9F05FC16B0C68D9
:1005A00001680B68D0F840C0042202FA0CF2494DF1
:1005B000DFF824A1494E4A4FDFF828B1DFF828E1DF
:1005C00022422CD05A072AD50A68920603D40A6818
:1005D00022F004020A600168A94201D1042219E054
:1005E000514501D1402215E0B14202D14FF4806261
:1005F00010E0B94202D14FF480420BE0594502D1DC
:100600004FF4802206E0714502D14FF4800201E0F0
:100610004FF080622F4908394A60C16A3BE04FF0D1
:10062000020808FA0CF818EA040F4FF000094FF01E
:10063000010235D05FEA837832D50B689B0605D47A
:100640000B6823F00A030B6080F821200168A9429F
:1006500001D1022219E0514501D1202215E0B14219
:1006600002D14FF4007210E0B94202D14FF40052AF
:100670000BE0594502D14FF4003206E0714502D13A
:100680004FF4001201E04FF00072124908394A603D
:1006900080F82090816A00291AD0BDE8F05F0847F1
:1006A000082505FA0CF5254212D01B0710D50B685A
:1006B00023F00E030B6090F84010C36B02FA01F1B7
:1006C0005960826380F8212080F82090016BE2E776
:1006D000BDE8F09F080002401C00024030000240CC
:1006E00044000240580002406C00024030B528B37C
:1006F00008C8134914221944B1FBF2F18900C163FF
:1007000010498163022141771A6843F6F0718A43E8
:10071000D0E900142143D0E902452C432143046968
:100720002143446921438469214311431960002115
:100730004163012242770177084630BD012030BD78
:10074000F8FFFDBF0000024070B5044690F820009D
:10075000002501280CD0012084F8200094F82160A5
:100760000020012E06D084F820000225284670BD06
:10077000022070BD022684F82160A063206806680C
:1007800026F0010606602046FFF780FEE06A00289A
:100790002068016802D041F00E0106E021F004015A
:1007A00001602068016841F00A0101602068016869
:1007B00041F001010160D9E770B5044600F0FEF890
:1007C0000546601C02D004480078044400F0F6F8A6
:1007D000401BA042FAD370BD1C0000202DE9F84F49
:1007E000DFF8B8910024A9F1040B23460F2709F183
:1007F000040AABF1040EC9E00125A5402A40AA4233
:100800007DD1674ED1F804C0ACEB0608B44532D0B8
:1008100014DCBCF1030F3AD009DCBCF1000F2AD084
:10082000BCF1010F1CD0BCF1020F31D11DE0BCF1B5
:10083000110F17D0BCF1120F2AD119E0B8F5881F9B
:1008400019D006DCB8F5803F15D0B8F5801F1FD150
:1008500011E0B8F5001F0ED0B8F5041F18D10AE05A
:10086000CB6815E0CB681B1D12E0CB6808330FE0A6
:10087000CB680C330CE08B682BB1012B4FF00803D5
:1008800003D0456104E0042302E0056100E0002399
:10089000FF2A01D8064601E000F104064FEA84056C
:1008A00001D9A5F12005D6F8008007FA05FC28EA51
:1008B0000C0803FA05F548EA0508C6F800804D68FB
:1008C000ED0062D5374DAE6946F00106AE61AD6907
:1008D00024F0030605F001050095334D06EB050CE9
:1008E000DCF80850A607360F07FA06F825EA0805CF
:1008F000DFF8B880404503D14FF0000817E044E02E
:10090000DFF8AC80404502D14FF001080FE0DFF87E
:10091000A480404502D14FF0020808E0DFF898803B
:10092000404502D14FF0030801E04FF0040808FAF7
:1009300006F848EA0508CCF808804D68D9F8006048
:10094000ED024D4601D5164300E096432E604D68FA
:10095000DAF80060AD02554601D5164300E0964333
:100960002E604D68DBF80060AD035D4601D516438F
:1009700000E096432E604D68DEF80060ED0375469A
:1009800001D5164300E096432E60641C0D682A468C
:10099000E5407FF431AFBDE8F88F00000804014066
:1009A000000011100010024000000140000801404A
:1009B000000C014000100140001401400148806813
:1009C000704700001C000020024881680278114432
:1009D000816070471C000020074810B5016841F095
:1009E00010010160032000F095F80F2000F006F8D8
:1009F00000F03EF8002010BD0020024000B5014686
:100A000087B00022192000F065F8192000F054F892
:100A10001348816941F400618161806905A900F48E
:100A200000600690684600F01DF900F04BF90D4992
:100A30000D4AB0FBF1F10D48491E0260416040F2E1
:100A4000E7320021C0E90321816000F037FB10B1DB
:100A5000012007B000BD054800F07CFBF9E700006D
:100A60000010024040420F00002C0140A00700206F
:100A70000F4808B5816941F001018161816901F088
:100A800001010091C16941F08051C161C06900223A
:100A900000F0805000900F21901E00F01BF80548D8
:100AA000416821F0E06141F00071416008BD000043
:100AB0000010024000000140002809DB00F01F0286
:100AC000012191404009800000F1E020C0F80011B0
:100AD00070470000F0B40E4B1B680C46C3F30223B2
:100AE000C3F10705042D00D90425191D072901D2DA
:100AF000002300E0DB1E012606FA05F1491E214015
:100B000099409E40761E16403143F0BC01F083BDF3
:100B10000CED00E0064900F0070208684FF6FF03FD
:100B2000184040EA0220034A104308607047000062
:100B30000CED00E00000FA052DE9F0470F46050036
:100B400061D0434E306800F00700B84209D23068E7
:100B500020F0070038433060306800F00700B842EA
:100B600051D128683B4C810712D5400703D56068F6
:100B700040F4E06060602878000703D5606840F4C6
:100B8000605060606068A96820F0F0000843606011
:100B90002878C00728D06868012810D0216802286A
:100BA00010D0890700292EDA616821F00301014382
:100BB0006160FFF703FF804641F288390DE021684C
:100BC0008903EFE78901EDE7FFF7F8FEA0EB0801E5
:100BD000494502D90320BDE8F0876068696800F0E4
:100BE0000C00B0EB810FEFD1306800F00700B84285
:100BF0000BD9306820F0070038433060306800F0CF
:100C00000700B84201D00120E5E72878400705D564
:100C10006068E96820F4E0600843606028780007B5
:100C200006D56068296920F4605040EAC100606020
:100C300000F058F86168084AC1F30311515CC840DC
:100C40000649086006480068FFF7D8FE0020C2E7A2
:100C500000200240001002409245000828000020B9
:100C6000200000200F2202600C4A536803F00303A7
:100C70004360536803F0F0038360536803F4E06358
:100C8000C36052684FF4E06303EAD2020261044891
:100C9000006800F007000860704700000010024084
:100CA000002002400448054900684968044AC1F32D
:100CB0000221515CC840704728000020001002400B
:100CC000A24500080448054900684968044AC1F380
:100CD000C221515CC840704728000020001002402B
:100CE000A24500080E4A51680E4801F00C03042B7F
:100CF00011D0082B0FD10C48C1F38343C903C05C4A
:100D00000AD55168084AC1F34041921E515C054A18
:100D10005043B0FBF1F0704704494843704700006E
:100D20000010024000127A008245000800093D00D0
:100D30002DE9F84F040070D02078C04DC00749D08D
:100D40006868C0F38100012807D06868C0F381009B
:100D5000022809D16868C00306D52868800339D500
:100D600060680028E7D035E06068B0F5803F0BD0C0
:100D700010B1B0F5A02F11D0286820F48030286081
:100D8000286820F4802002E0286840F48030286041
:100D9000606890B1FFF712FE06460AE0286840F44A
:100DA00080202860F0E700BFFFF708FE801B642862
:100DB00073D828688003F7D50CE0FFF7FFFD0646DF
:100DC00005E000BFFFF7FAFD801B6428F0D8286813
:100DD0008003F7D420789A4E80074FF001094FF036
:100DE000000839D5686810F00C0F07D06868C0F3A8
:100DF0008100022809D16868C00306D428688007EA
:100E000014D52069012808D110E02069B0B1C6F8D6
:100E10000090FFF7D3FD074605E00AE1FFF7CEFD9E
:100E2000C01B0228C4D828688007F7D528686169E4
:100E300020F0F80040EAC10028600DE0C6F800800C
:100E4000FFF7BCFD074604E0FFF7B8FDC01B022812
:100E500023D828688007F7D4207800072CD5794854
:100E6000A169D9B1C0F80090FFF7A8FD074604E0DA
:100E7000FFF7A4FDC01B02280FD8686A8007F7D5CA
:100E800071484FF4FA510068B0FBF1F0009000BFD8
:100E90000098411E0091FAD20EE080E0C0F8008078
:100EA000FFF78CFD074604E0FFF788FDC01B022812
:100EB00075D8686A8007F7D42078400760D5E8695C
:100EC0000027C00008D4E86940F08050E861E86974
:100ED000012700F0805000905C480168C90513D4D8
:100EE0000168834641F480710160FFF767FD824627
:100EF00006E000BFFFF762FDA0EB0A0064284ED8B1
:100F0000DBF80000C005F5D5E06801280AD008B17B
:100F1000052813D0286A20F001002862286A20F0F2
:100F2000040002E0286A40F001002862E06841F213
:100F3000883B98B1FFF742FD82460BE0286A40F0FB
:100F400004002862EEE700BFFFF738FDA0EB0A01BE
:100F500059455AD8286A8007F6D50CE0FFF72EFDD0
:100F6000824605E0FFF72AFDA0EB0A0159454CD85F
:100F7000286A8007F6D41FB1E86920F08050E86144
:100F8000E06988B36968C1F38101022944D002286D
:100F9000C6F8608004D0FFF711FD044638E034E065
:100FA000FFF70CFD074604E0FFF708FDC01B022811
:100FB0002BD828688001F7D4206AB0F5803F05D18E
:100FC0006868A16820F4003008436860D4E908012B
:100FD0000843696821F4741108436860C6F860909A
:100FE000FFF7ECFC044606E025E000BFFFF7E6FC57
:100FF000001B022809D828688001F7D51BE000BF34
:10100000FFF7DCFC001B022802D90320BDE8F88FA3
:1010100028688001F4D40EE00128F7D06868226ABD
:1010200000F48031914204D1616A00F4701088426A
:1010300001D00120EAE70020E8E7000000100240AC
:10104000000042428004424228000020007000401C
:101050007047704770B590F83C20012A26D00124D3
:1010600080F83C40022280F83D2003685A689D6861
:1010700022F070060A6832435A600D4B02689A42A9
:1010800008D0B2F1804F05D00A4B9A4202D00A4BE9
:101090009A4204D1496825F080031943916080F891
:1010A0003D40002180F83C10084670BD022070BD14
:1010B000002C0140000400400008004010B504006E
:1010C00003D094F83D0010B107E0012010BD0020CE
:1010D00084F83C00204600F01FF8022084F83D0010
:1010E000211D206800F02CFF012084F8460084F8C0
:1010F0003E0084F83F0084F8400084F8410084F802
:10110000420084F8430084F8440084F8450084F8E1
:101110003D00002010BD000008B501680B48B1F18A
:10112000804F0BD00A4A914207D1C16941F00401B6
:10113000C161C06900F00400009008BDC16941F0C0
:101140000101C161C06900F00100F5E70010024033
:101150000008004090F83D10012901D0012070479F
:10116000022180F83D100168CA6842F00102CA609D
:1011700000680B49884208D0B0F1804F05D009497A
:10118000884202D00849884204D1816801F00701F1
:10119000062903D0016841F0010101600020704779
:1011A000002C0140000400400008004070B50446D7
:1011B00090F83C000025012817D0012684F83C60F7
:1011C000022084F83D002068826822F0770222F431
:1011D0007F4282600868502838D00DDC20284FD02C
:1011E00005DC90B3102811D14AE0022070BD3028F0
:1011F00046D040280AD13BE060282FD070280DD07F
:10120000B0F5805F03D0B0F5005F12D0012584F8FF
:101210003D60002084F83C00284670BDCB68D1E9D1
:101220000121206800F0CFFE2068816841F077013D
:1012300009E0CB68D1E90121206800F0C4FE2068F4
:10124000816841F480418160E1E719E0CA6849683A
:10125000206800F06DFF5021206806E0CA684968E8
:10126000206800F076FF6021206800F0B6FECEE72F
:10127000CA684968206800F05BFF40212068F4E7F5
:10128000226801461046F0E7704770B504460068D2
:1012900001694FF00005C943890715D4C168C943E6
:1012A000890711D4E91E0161012020772068806937
:1012B0008007204602D0FFF7E7FF04E000F0DCF8EB
:1012C000204600F06EF9257720680169C943490777
:1012D00017D4C168C943490713D46FF004010161F1
:1012E000022020772068806910F4407F204602D0D9
:1012F000FFF7CAFF04E000F0BFF8204600F051F904
:10130000257720680169C943090716D4C168C94314
:10131000090712D46FF008010161042020772068CA
:10132000C0698007204602D0FFF7AEFF04E000F05E
:10133000A3F8204600F035F9257720680169C943F4
:10134000C90617D4C168C943C90613D46FF0100188
:101350000161082020772068C06910F4407F204692
:1013600002D0FFF791FF04E000F086F8204600F07D
:1013700018F9257720680169C943C90708D1C168F0
:10138000C943C90704D1891E0161204600F058F9FC
:1013900020680169C943090609D4C168C94309061F
:1013A00005D46FF0800101612046FFF751FE2068EF
:1013B0000169C943490609D4C168C943490605D42E
:1013C0006FF040010161204600F044F92068016996
:1013D000C94389060BD4C168C943890607D46FF095
:1013E000200101612046BDE87040FFF732BE70BDAC
:1013F00010B586B00021009101910291039103681C
:10140000194902221948B3F1804F14D0184CA34255
:101410000FD18B6943F008038B618969039201F056
:10142000080104914FF47071CDE900126946FFF78D
:10143000D5F906B010BD8B6943F008038B6189694B
:10144000039201F0080104910821CDE900126946D8
:10145000FFF7C4F90748416821F4407141F0E061A9
:1014600041F480714160E4E700100240000C01404B
:101470000008004000000140704770B5044690F835
:101480003C0000260D4601280FD0012084F83C00C6
:101490006AB1042A1DD0082A2FD00C2A3FD0012679
:1014A000002084F83C00304670BD022070BD2068EA
:1014B00000F09CFD2068816941F00801816120688D
:1014C000816921F004018161206881692A691143E1
:1014D00011E0206800F0B2FD2068816941F40061EC
:1014E00081612068816921F480618161206881695E
:1014F0002A6941EA02218161D2E7206800F0CAFD31
:101500002068C16941F00801C1612068C16921F00A
:101510000401C1612068C1692A69114311E0206892
:1015200000F0E4FD2068C16941F40061C1612068F8
:10153000C16921F48061C1612068C1692A6941EAF9
:101540000221C161ACE710B5040003D094F83D005E
:1015500010B107E0012010BD002084F83C002046B7
:1015600000F01EF8022084F83D00211D206800F0E4
:10157000E7FC012084F8460084F83E0084F83F0030
:1015800084F8400084F8410084F8420084F8430065
:1015900084F8440084F8450084F83D00002010BD24
:1015A0007047704710B50446022249B104290ED095
:1015B000082913D094F84100012816D0012010BD4D
:1015C00094F83E000128F9D184F83E200FE094F809
:1015D0003F000128F2D184F83F2008E094F8400051
:1015E0000128EBD184F8402001E084F84120012259
:1015F000206800F0DBFC0F492068884203D1426C70
:1016000042F4004242642068884208D0B0F1804F22
:1016100005D00949884202D00849884204D181682E
:1016200001F00701062903D0016841F001010160C2
:10163000002010BD002C01400004004000080040C4
:1016400000680349884201D1FFF7BEB97047000026
:10165000002C01407047704710B50446006840698F
:1016600094F84110C0F3C010212911D180B1206835
:10167000143050E8001F21F0800140E80012002AD9
:10168000F5D1A06B08B1FEF718FF204600F03FFE31
:101690002068406994F84210C0F38010222911D1CB
:1016A00080B12068143050E8001F21F0400140E86C
:1016B0000012002AF5D1E06B08B1FEF7FEFE2046CD
:1016C00000F0FEFD002010BD70470000F8B5016875
:1016D00004460868CA684B6910F00F0F4FF0000508
:1016E00059D003F0010602F49077374365D0C10763
:1016F00005D0D10503D5616C41F00101616441075A
:1017000005D5D90703D0616C41F0020161648107FE
:1017100005D5D90703D0616C41F00401616401076C
:1017200007D502F02001314303D0616C41F008017C
:101730006164616C00293AD0800604D5900602D518
:10174000204600F0F2FD20684069616CC0F3801013
:10175000090700D460B3204600F0B2FD206840695C
:10176000400621D52068143050E8001F21F04001C8
:1017700040E80012002AF5D1E06BA8B16D49416341
:10178000E06BFEF7BDFE002811D0E06B416B01B0AD
:10179000BDE8F040084783060FD593060DD52046D7
:1017A000BDE8F84000F0C1BD2046FFF78DFFF8BD51
:1017B0002046FFF789FF6564F8BD266B2023012EC4
:1017C0007CD1C6067AD5D60678D5086848680090D8
:1017D00048694FF00206400640D5E16B0868406852
:1017E0000004000CE8D0A28D8242E5D9E08588692A
:1017F00020282DD020680C3050E8001F21F4807183
:1018000040E80012002AF5D12068143050E8001F8B
:1018100021F0010140E80012002AF5D120681430BF
:1018200050E8001F21F0400140E80012002AF5D1E5
:1018300084F84230256320680C3050E8001F21F006
:10184000100140E80012002AF5D1E06BFEF735FEEA
:101850006663A08DE18D401A81B22AE0A08DE18DF2
:10186000401A81B2E08D0028A6D00029A4D02268B9
:101870000C3252E8000F20F4907042E80007002F6D
:10188000F5D12068143050E8002F22F0010240E822
:101890000027002FF5D184F84230256320680C30F2
:1018A00050E8002F22F0100240E80023002BF5D171
:1018B00066632046FFF7CFFEF8BDFFE705062BD590
:1018C000150629D594F841002128F5D1A068B0F576
:1018D000805F01D12069B0B1206A411C216221687A
:1018E00000784860E08C401E0004000CE084E3D1E6
:1018F0002068C16821F08001C1602068C16841F0A2
:101900004001C160D8E7206A0088C0F30800486041
:10191000206A801C2062E5E74006CDD55006CBD575
:10192000CA68204622F04002CA6084F8413000F0C4
:1019300049F9C1E77721000870B5040004D094F894
:101940004100002510B106E0012070BD84F8405030
:10195000204600F023F8242084F841002068C16864
:1019600021F40051C160204600F040FD206801696B
:1019700021F4904101612068416921F02A0141610F
:101980002068C16841F40051C1606564202084F87A
:10199000410084F842006563002070BD2DE9F043EA
:1019A00085B00025009501950295039504460368CE
:1019B0005848DFF85CC102210322071580264FF04A
:1019C000100863454DD1836943F480438361836983
:1019D00003F480430493836943F0040383618069C3
:1019E000DFF8349100F0040004900802CDE9000112
:1019F000039269464846FEF7F1FECDE90075694657
:101A000048460295FEF7EAFE454F4448C7E90005FF
:101A1000C7E902563D617D61BD613846FD61FEF753
:101A200065FE08B1FEF748FDE7637C623C4F3B482A
:101A300044371438C7E902563D617D61BD61FD61DF
:101A4000C7E900083846FEF751FE08B1FEF734FD3D
:101A5000A7630022052125207C62FFF73BF82520A3
:101A600051E0DFF8C0C063454FD1C36943F4802320
:101A7000C361C36903F480230493836943F00803BB
:101A800083618069CDE9007100F00800CDE9032091
:101A9000254F69463846FEF7A1FEF814CDE900054A
:101AA000694638460295FEF799FE1D4F1B48883758
:101AB0002838C7E90005C7E902563D617D61BD616F
:101AC0003846FD61FEF712FE08B1FEF7F5FCE7634C
:101AD0007C62134F1148CC373C38C7E902563D6150
:101AE0007D61BD61FD61C7E900083846FEF7FEFD76
:101AF00008B1FEF7E1FCA7630022052127207C62E4
:101B0000FEF7E8FF2720FEF7D7FF05B0BDE8F0831A
:101B10000038014000100240000801405800024017
:101B20009006002000480040000C014090F8423030
:101B3000202B01D00220704721B11AB1002303638A
:101B400000F0B0BC012070477047704770B5044684
:101B500090F84100202801D0022070BD49B342B363
:101B60002162A284E28400206064212384F8413051
:101B7000A56B114BAB62A56B104BEB62A56B104BC9
:101B80002B63A36B5863256813462A1DA06BFEF7D1
:101B9000DBFD21686FF0400008602068143050E8D9
:101BA000001F41F0800140E80012002AF5D100201A
:101BB00070BD012070BD000075220008B72200082A
:101BC0008721000870477047FEE70000154808B5F8
:101BD000416941F0010141614069002200F00100CA
:101BE000009005210C20FEF775FF0C20FEF764FF26
:101BF000002205210D20FEF76DFF0D20FEF75CFF92
:101C0000002205210E20FEF765FF0E20FEF754FF8F
:101C1000002205210F20FEF75DFFBDE808400F20E0
:101C2000FEF74ABF0010024010B59CB000221821F8
:101C30000A2001F0E1FB174C1C221749206168467D
:101C4000FEF753FB0021684600F00FFE12492060AA
:101C50001C221C3107A8FEF748FB002107A800F052
:101C600004FE0D4960601C2238310EA8FEF73DFBD2
:101C700000210EA800F0F9FD0749E0601C22543154
:101C800015A8FEF732FB002115A800F0EEFDA060BC
:101C90001CB010BD08000020104500080D4808B514
:101CA000816941F020018161816901F02001009189
:101CB000816941F008018161816901F008010091A9
:101CC000816941F004018161806900F004000090A5
:101CD00008BD00000010024010B58EB0002407942B
:101CE000089409940A940B941C2168460C94FEF7FE
:101CF00050FB1E484FF08041016041F61F41C0E992
:101D00000114C721C0E903148461FFF7D7F908B1B2
:101D1000FEF7D2FB4FF48050079007A91348FFF756
:101D200045FA08B1FEF7C8FB1048FFF70CFC08B1F4
:101D3000FEF7C2FB0B940BA90C480C94FFF78AF931
:101D400008B1FEF7B9FB602000900F20CDE9010437
:101D50000422694605480494FFF78FFB08B1FEF79B
:101D6000ABFB0248FFF744FB0EB010BD700500202E
:101D700010B58EB000240794089409940A940B942B
:101D80001C2168460C94FEF704FB2B48294901608E
:101D900041F61F41C0E90114C721C0E90314846161
:101DA000FFF78CF908B1FEF787FB4FF480500790DE
:101DB00007A92148FFF7FAF908B1FEF77DFB1E4895
:101DC000FFF7C1FB08B1FEF777FB0B940BA91A488C
:101DD0000C94FFF73FF908B1FEF76EFB602000900E
:101DE0000F20CDE901040022694613480494FFF74F
:101DF00044FB08B1FEF760FB042269460E48FFF77A
:101E00003CFB08B1FEF758FB082269460A48FFF779
:101E100034FB08B1FEF750FB0C2269460648FFF779
:101E20002CFB08B1FEF748FB0348FFF7E1FA0EB0C0
:101E300010BD000000080040B80500200C4810B597
:101E40000A4901604FF4E1314160002181600C22B8
:101E5000C160C0E904128161C161FFF76DFD002816
:101E600003D0BDE81040FEF727BB10BD003801408D
:101E7000000600200C4810B50A4901604FF4E1311A
:101E80004160002181600C22C160C0E904128161BF
:101E9000C161FFF751FD002803D0BDE81040FEF7F7
:101EA0000BBB10BD0048004048060020FEE770470D
:101EB000012000F0BBFCFBE710B5502080F3118837
:101EC000BFF34F8FBFF36F8F01F0F8FC18B10449D7
:101ED0004FF080500860002080F3118810BD000092
:101EE00004ED00E030B58FB028216846FEF751FAC6
:101EF00014210AA8FEF74DFA01210804CDE90010CB
:101F00000024029402250491CDE907504FF4E0101B
:101F100009906846FEF70CFF0F20CDE90A0568021C
:101F2000CDE90C4002210AA80E94FEF705FE0FB081
:101F300030BD70470148FFF7A8B90000A007002096
:101F4000F0B50268164B174C174D4FF0804798427A
:101F500005D0B84203D0A04201D0A84203D122F05C
:101F600070064A683243984205D0B84203D0A04276
:101F700001D0A84203D122F44074CA6822434C69BC
:101F800022F08002224302608A68C2620A6882628A
:101F9000984201D10969016301214161F0BD00004E
:101FA000002C0140000400400008004010B501F082
:101FB0001F030121046A99408C430462016A9A401C
:101FC0001143016210BD10B5846842EA032224F473
:101FD0007F440A432243826010BD826822F070026F
:101FE0000A4342F0070181607047000030B5036A80
:101FF000026A22F0010202624268846924F07305D9
:102000000C682C4323F002058B682B430A4DA84231
:102010000BD123F00805CB6822F440722B434D69A5
:1020200023F0040315438A692A43426084614968A6
:102030004163036230BD0000002C014030B5026AEC
:10204000036A23F010030362436884690D6824F473
:10205000E64444EA05248D6822F0200242EA051293
:102060000B4DA8420ED1CD6822F0800242EA051243
:102070004D6923F4406343EA85038D6922F04002F1
:1020800043EA85034360846149688163026230BD2D
:10209000002C014030B5036A026A22F480720262A9
:1020A0004268C46923F4007324F073050C682C4360
:1020B0008D6843EA05230C4DA8420ED1CD6823F468
:1020C000006343EA05234D6922F4405242EA0512B7
:1020D0008D6923F4806342EA05124260C461496855
:1020E000C163036230BD0000002C014030B5046ABA
:1020F000026A22F4805202624268C3690D6823F4C6
:10210000E64343EA05238D6824F4005444EA053489
:10211000064DA84204D14D6922F4804242EA85125C
:102120004260C36149680164046230BD002C014013
:1021300010B5036A046A24F001040462846924F07F
:10214000F00444EA021423F00A020A4384610262A2
:1021500010BD10B5036A046A24F010040462846997
:1021600023F0A00324F4704444EA023243EA01114C
:102170008261016210BD10B5406A0021C185C18431
:10218000FFF7A2FA10BD70B5446A2068406994F860
:102190004110C0F3C0100025212904D118B1E584F5
:1021A000204600F0B4F82068406994F84210C0F36B
:1021B0008010222904D118B1E585204600F080F86E
:1021C000606C40F0100060642046FFF77DFA70BD3F
:1021D00010B50146406A096809684FF00002890697
:1021E0002ED4C28501680C3151E8003F23F480737E
:1021F00041E80034002CF5D10168143151E8003F6A
:1022000023F0010341E80034002CF5D101681431BA
:1022100051E8003F23F0400341E80034002CF5D1A1
:10222000202180F84210016B012909D101680C318D
:1022300051E8003F23F0100341E80034002CF5D1B1
:102240004263016B012902D0FFF77EFC10BD818D36
:10225000FFF701FA10BD10B5406A01214163016B1F
:10226000012902D0FFF771FC10BD818D4908FFF7ED
:10227000F2F910BD10B50146406A0968096889067F
:1022800016D40021C1840168143151E8002F22F0D6
:10229000800241E80023002BF5D101680C3151E8A0
:1022A000002F42F0400241E80023002BF5D110BD81
:1022B000FFF788FC10BD10B5406AFFF784FC10BD25
:1022C00001680C3151E8002F22F4907241E800239C
:1022D000002BF5D10168143151E8002F22F00102E2
:1022E00041E80023002BF5D1016B012909D10168D8
:1022F0000C3151E8002F22F0100241E80023002B9E
:10230000F5D1202180F84210002101637047016857
:102310000C3151E8002F22F0C00241E80023002BCD
:10232000F5D1202180F84110704708B590F842108F
:10233000222901D0022008BD82684FF480539A42BE
:1023400001D1016921B1816A9A421BD04AB10AE0E8
:102350000268816A5268C2F308020A80816A891C95
:1023600008E0026972B10268526802F07F020A70E6
:10237000816A491C8162C18D491E0904090CC1850D
:1023800003D01BE002685268F1E70168CA6822F0D6
:102390002002CA600168CA6822F48072CA600168BB
:1023A0004A6922F001024A61202180F8421000218E
:1023B0004163026B012A03D0FFF7C6FB002008BD72
:1023C000016301680C3151E8002F22F0100241E84E
:1023D0000023002BF5D101680A68D20602D50A68ED
:1023E00049680091818DFFF736F9E7E770B504463B
:1023F00000680169E26821F44051114301612169DB
:10240000A0680843616908432168CA6841F20C6307
:102410009A430243CA6020684169A26921F440716D
:10242000114341611E492068884202D1FEF74AFCEF
:1024300001E0FEF737FC00EBC00101EB0012606821
:1024400064218000B2FBF0F3B3FBF1F36FF01806E8
:102450007343B2FBF0F5B2FBF0F605EB83053223D4
:1024600003EB0515B5FBF1F5B6FBF1F605F0F0054C
:1024700005EB0615B2FBF0F6B2FBF0F0B0FBF1F0A5
:102480006FF01802504306EB800003EB0010B0FB26
:10249000F1F0216800F00F002844886070BD000052
:1024A0000038014038B58162044682850020134619
:1024B0006064222284F84220E56B1B4AAA62E56B25
:1024C0001A4AEA62E56B1A4A2A63E26B50630A46CB
:1024D0002168E06B091DFEF737F920680168406844
:1024E0000090206948B120680C3050E8001F41F48A
:1024F000807140E80012002AF5D12068143050E8BD
:10250000001F41F0010140E80012002AF5D12068C7
:10251000143050E8001F41F0400140E80012002A4A
:10252000F5D1002038BD0000D12100085722000855
:102530008721000810B50448FFF7C8F8BDE810402F
:10254000014800F02DB800000006002010B5044836
:10255000FFF7BCF8BDE81040014800F021B80000CA
:102560004806002010B5044600680A49884202D097
:10257000094988420DD1094800F072FCF32107484F
:10258000FDF7E5FE2046BDE81040F3220349FFF7C2
:10259000CDBA10BD0038014000480040FC000020CA
:1025A00038B5016804460868C043C0060AD4086804
:1025B000486800902046FFF74FF82046BDE83840B5
:1025C000FFF7D0BF38BD00000F4808B500680168AC
:1025D00041680091C16841F01001C160F3220B49CC
:1025E0000948FFF7A3FA0A480068016841680091AA
:1025F000C16841F01001C160BDE80840F322034901
:102600000348FFF793BA000000060020FC000020FA
:1026100048060020FEE70907090E002804DB00F148
:10262000E02080F80014704700F00F0000F1E02077
:1026300080F8141D7047000010B50C46006801F0CA
:10264000F9FD0022054B01F05FFB0022044B01F075
:10265000B3FA01F07FFA206010BD000000002240B4
:1026600000001440EFF30580002800D001207047DF
:102670002DE9F047254EB06E10F0FF4F44D1DFF842
:102680009080DFF89090002506EB850404F1280780
:10269000606D46F8250039462A46204600F0C8FB02
:1026A000A06A404501D9012100E00021484501DD33
:1026B000012000E00020014306D104F13C0138462E
:1026C000FFF7BAFFA06A60616D1C052DDCDBF06BC3
:1026D00001F03EFE4FF080418863306C01F038FE1F
:1026E0000D490860706C01F033FE0B49091D08604C
:1026F000B06C01F02DFE084908390860F06C01F05B
:1027000027FE0549091F0860BDE8F0878C000020FE
:102710000000B4C20000B4423C08004010B5702173
:102720000E48FDF736FE4FF080410F2088630C49BC
:102730000860091D08600A4908390860091D086019
:10274000064B0849084C002003EB8002401C5161F5
:10275000D46391620528F7DB10BD00008C000020D7
:102760003C0800400000B4420000704108B500F091
:1027700070F80090FFF7D2FF0D4C0E4E04F1540894
:102780000D4D012700F048FC00224146306800F062
:102790004BFF2860012808D084F86C7000F05CFCC6
:1027A0000221684600F0FCFCECE7FFF761FFF5E76B
:1027B0008C0000201800002000000020FEF70CF91B
:1027C000FFF790FBFFF76AFAFFF786FAFFF7FEF9CB
:1027D000FFF734FBFFF7CCFAFFF74CFB04210E4860
:1027E000FEF7E0FE00210D48FEF7DCFE04210B4859
:1027F000FEF7D8FE08210948FEF7D4FE0C21074851
:10280000FEF7D0FEFFF7E0FE6420FDF7D5FFFFF7EF
:102810000BFA00F019F8FEE770050020B80500205B
:1028200001460020842900D0C81C704710B500B9AB
:10283000012000F08FFC002010BD10B501B901216E
:1028400000F0AEFC002010BD10B500F015FD00201A
:1028500010BD10B5FFF706FF18B1BDE8104001F03C
:1028600025B8BDE8104001F01BB87FB50D46044601
:102870004169B0F9080081B1A16971B1FFF7D0FFDA
:10288000D4E905128DE80700D4E900102B4622692F
:1028900000F0CDFF039004B070BDFFF7C1FF03A9A6
:1028A000CDE90001208A2B4682B2D4E9001000F065
:1028B00091FF012801D00020EDE70398EBE700002D
:1028C0002DE9F041184C0F46054666692068001D49
:1028D00000F052FB38B9206890F82C100120884095
:1028E000A1698143A161681C07D137B12168BDE8A6
:1028F000F0410E48091D00F083BB20683544B54205
:102900004560216805D2A068BDE8F041091D00F0CE
:102910005FBB6068091D00F05BFB206B854200D245
:102920002563BDE8F08100002C000020C4080020D1
:102930002DE9F041054600F06FFB2E4C2069401C4C
:10294000206120682C4F10B1E06940B32DE0256074
:102950002069012829D1002606EB860007EB8000BC
:1029600000F028FB761C072EF6D323488C3000F0AD
:1029700021FB2148A03000F01DFB1F48B43000F0BF
:1029800019FB1D48C83000F015FB1B48DC3000F077
:1029900011FB19488C3060601430A06005E020689D
:1029A000E96AC06A884200D82560E06A401CE0629B
:1029B000E96A0120A26988401043A06101EB81000F
:1029C00007EB8000291D00F01BFB00F045FBE069D0
:1029D00000280CD02068E96AC06A884207D20749FB
:1029E0004FF080500860BFF34F8FBFF36F8FBDE88B
:1029F000F08100002C000020E807002004ED00E03A
:102A000030B4026C0B46002A0BD0C1681144C1607F
:102A10004468A14201D30168C16030BC1846FDF78B
:102A20001FBC30BC70472DE9F041856B174604464A
:102A30000026026C82B1C7B1E068FDF711FCE168C5
:102A4000206C091AE1602268914202D26168081A7A
:102A5000E060022F16D017E02068A8B9606800F087
:102A600091FF0646002060600EE0A068FDF7F8FBCD
:102A7000216CA0680844A0606168884204D3206883
:102A8000A06001E005B16D1E6D1CA5633046BDE878
:102A9000F08110B5044690F8510058B101280CD0CF
:102AA00002280FD0502080F31188BFF34F8FBFF35F
:102AB0006F8FFEE7206B00F0E3FA2046BDE8104080
:102AC00000F0DEBA10BD000010484FF4406142072C
:102AD00006D0C01D0D4920F00700411AC1F5406124
:102AE0000B4A00230144C2E900030839103A21F0DF
:102AF000070111604B600B600B1AC0E90013936073
:102B00004FF000405360D06070470000D8080020AC
:102B100078000020144E154CA6F1C8074FF08058DD
:102B2000DFF84C9012E000BF00F076FAF068C5685C
:102B3000281D00F021FA2069401E2061E068401E37
:102B4000E06000F089FA2846FFF7A3FFE06800285C
:102B5000EAD138680128F9D9C9F80080BFF34F8F4E
:102B6000BFF36F8FF2E70000B00800202C000020B8
:102B700004ED00E00346009829B10260C0E90F317E
:102B8000012100F05DBC0060F8E72DE9F0479A46AE
:102B9000DDE9098481466FF00303206B03EB8202B9
:102BA0001044089D20F00706700707D0502080F3DE
:102BB0001188BFF34F8FBFF36F8FFEE723180A5CB6
:102BC00083F834200A5C12B1401C1028F6D3002789
:102BD00084F84370072D00D30625E562C4E9115738
:102BE000201D00F0F2F904F1180000F0EEF9246164
:102BF000C5F107006462A061E76484F85070524632
:102C00004946304600F002F92060B8F1000F01D0CB
:102C1000C8F80040BDE8F08730B5114900E0114622
:102C20000A688242FBD34B685C18844203D1406837
:102C300018444860084643681C18944209D1084C5F
:102C4000103C2468A24209D052681A4442600A68C3
:102C500012680260814200D0086030BD0460F9E76C
:102C60007800002010B5044600F0D6F9A06B28B11A
:102C70005FF0000400F0F0F9204610BD0124F9E7F0
:102C800006484168096829B14168C968C968496846
:102C9000016370474FF0FF31FAE700002C0000207D
:102CA00008484068401C4FF0500080F3118804D061
:102CB000BFF34F8FBFF36F8FFEE7BFF34F8FBFF3AD
:102CC0006F8FFEE7800000202DE9F041044600F000
:102CD000A3F994F9455004F1240609E0606A48B16B
:102CE000304600F09BFE08B100F0A8FA6D1E6DB2F0
:102CF000002DF3DC4FF0FF3684F8456000F0ACF9AE
:102D000000F08AF994F9445004F1100709E02069B1
:102D100048B1384600F082FE08B100F08FFA6D1E0F
:102D20006DB2002DF3DC84F84460BDE8F04100F0A2
:102D300093B900002DE9F0410546002700F0D2FAD2
:102D4000314E306808B9FFF7BFFEF06805424BD13D
:102D5000C5B3083568070ED005F00700C0F10800BC
:102D60000544680707D0502080F31188BFF34F8FC8
:102D7000BFF36F8FFEE72DB37068854234D82248C9
:102D8000103001460C6801E020460C466168A942FB
:102D900002D221680029F7D131688C4224D007681B
:102DA0002168016060680837411B10290FD960193C
:102DB000420708D0502080F31188BFF34F8FBFF334
:102DC0006F8FFEE710E041606560FFF725FF6168E7
:102DD0007068401A7060B268904200D2B060F068CB
:102DE00001430020C4E9000100F052FE780707D03B
:102DF000502080F31188BFF34F8FBFF36F8FFEE732
:102E00003846BDE8F08100006800002010B5031FBF
:102E10004FF080741C601B1F21F001011960191F05
:102E2000024B0B60143940380A6010BDA12C000819
:102E300010B50A4B0C46052A0ED2DFE802F0030358
:102E4000080808000168184601F0ECFA03E0006881
:102E5000194601F01BFA206010BD00000000B442CA
:102E600010B50446F6210E48FDF771FA21460C4CC8
:102E7000F322E01CFDF7F4F9E078CC2801D0002023
:102E80000BE02079FF2801D0012006E094F8F5003E
:102E9000AA2801D0022000E00320207010BD00000D
:102EA0002402002008B5FFF7D4FC154D154F164E2F
:102EB0004FF00108DFF85490CDF8000000F0ACF8B6
:102EC0002878032814D185F80280002404EB4400FC
:102ED00005EBC00100231A46491D386800F0F4FADA
:102EE0003060012801D149F82480641C0A2CEDDBF4
:102EF00000F0B2F80221684600F052F9DEE7000067
:102F0000240200201800002004000020FC01002002
:102F100008B5FFF79EFC144C009000202060CC26E2
:102F2000FF27DFF84880DFF848902071AA2500BF0E
:102F300000F072F86671A771657298F80200E0718E
:102F400099F86C002072D4F80500206025710522E4
:102F500005490848FEF7FAFD00F07EF801216846B1
:102F6000FFF76BFCE4E70000EF01002024020020E3
:102F70008C00002048060020D0E9013201699A60E7
:102F8000D0E901235A604A68824201D182684A60CE
:102F9000002202610868401E08600868704700004F
:102FA000034B036003F154000860802010607047F9
:102FB0001C03002000F108014FF0FF32C0E90112AC
:102FC000C16001610021016070470021016170470B
:102FD00030B50B685A1C02D000F1080202E0026909
:102FE00004E02246546825689D42FAD953684B6034
:102FF00099608A60516008610168491C016030BDB8
:1030000042684A6093688B60936859609160086178
:103010000168491C01607047502080F31188BFF39C
:103020004F8FBFF36F8F0A494868401C48600128E2
:103030000CD10848006810F0FF0F07D0502080F333
:103040001188BFF34F8FBFF36F8FFEE7704700000B
:103050008000002004ED00E00849486828B1401EC7
:10306000486001D180F311887047502080F31188A7
:10307000BFF34F8FBFF36F8FFEE70000800000208B
:1030800070B5002827D0144DA0F108046168E868E5
:10309000014207D1502080F31188BFF34F8FBFF357
:1030A0006F8FFEE722683AB1502080F31188BFF39A
:1030B0004F8FBFF36F8FFEE78143616000F012F91D
:1030C00060686968084468602046FFF7A5FDBDE8B0
:1030D000704000F0DDBC70BD680000204FF0E020C3
:1030E00000210161816105494FF47A720968B1FBE1
:1030F000F2F1491E4161072101617047280000205B
:1031000010B5FDF789F8114910280ED300F1E02021
:1031100090F8F0030A78904207D2502080F311888B
:10312000BFF34F8FBFF36F8FFEE7094800688968D0
:1031300000F4E060884207D9502080F31188BFF383
:103140004F8FBFF36F8FFEE710BD0000800000209F
:103150000CED00E010B5020014D00F48806B38B1C0
:10316000502080F31188BFF34F8FBFF36F8FFEE7BE
:1031700000F0B8F800211046FFF7A2FB00F088FC31
:10318000002807D105494FF080500860BFF34F8FEA
:10319000BFF36F8F10BD00002C00002004ED00E095
:1031A00070B50D4604000BD095B11E4A906BB8B1B6
:1031B000502080F31188BFF34F8FBFF36F8FFEE76E
:1031C000502080F31188BFF34F8FBFF36F8FFEE75E
:1031D000502080F31188BFF34F8FBFF36F8FFEE74E
:1031E00000F080F8526923685919934204D98B4240
:1031F0000AD9914202D807E08B42FAD9881A216095
:103200000021FFF75DFB00E0216000F041FC002899
:1032100007D105494FF080500860BFF34F8FBFF3CF
:103220006F8F70BD2C00002004ED00E002498A6A17
:1032300002604969416070472C000020014901206B
:10324000486270472C00002010B50C4650B1094967
:1032500009681831FFF7BCFE2046BDE81040012187
:10326000FFF72EBB502080F31188BFF34F8FBFF3C1
:103270006F8FFEE72C00002010B586B00024039469
:1032800005AA04A903A80494FFF78AFEDDE9030157
:103290000094CDE9011000230EA11048059A00F01A
:1032A000C6FA0F490028486311D0502080F31188D6
:1032B000BFF34F8FBFF36F8F4FF0FF3008630120D4
:1032C000C8614C6106B0BDE8104000F041B806B0DE
:1032D00010BD000049444C4500000000152B0008BB
:1032E0002C0000200248816B491C8163704700005C
:1032F0002C0000201448816B11B1012141627047FC
:10330000002141628169B1FA81F1C1F11F0101EB34
:1033100081020E4951F822306BB101EB820101F1BB
:1033200008034A6852684A609A4201D152684A606A
:10333000D16801607047502080F31188BFF34F8F30
:10334000BFF36F8FFEE700002C000020E80700208D
:103350001CB5264908780190FF20087008788DF880
:1033600000009DF800009DF8002000F0F000904261
:1033700007D0502080F31188BFF34F8FBFF36F8FBA
:10338000FEE79DF800001A4B00F05000187007206F
:10339000986005E09DF8002052008DF80020401E46
:1033A0009DF800201206F5D49860032807D050201D
:1033B00080F31188BFF34F8FBFF36F8FFEE74FF499
:1033C00040709860019808700A48016841F47001E3
:1033D0000160016841F070410160FFF77FFE00204D
:1033E0005860FCF7E3FE00201CBD000000E400E094
:1033F0008000002020ED00E0F8B517460E460500DD
:1034000014D0DEB105FB06F04830FFF793FC040052
:103410000AD0002084F8460004F148023B463146B9
:1034200028460094FFF7A6FB2046F8BD502080F305
:103430001188BFF34F8FBFF36F8FFEE70020E3E7E4
:1034400070B50D46040025D0FFF7E6FDD4E90F2046
:10345000216802FB001161600021A1632168A16065
:103460000A46D4E90F01401E00FB0121E16021461C
:103470004FF0FF3001F8440F487004F110008DB197
:10348000FFF798FD04F12400FFF794FDFFF7E4FD3A
:10349000012070BD502080F31188BFF34F8FBFF320
:1034A0006F8FFEE721690029F0D000F0B7FA0028FD
:1034B000ECD004494FF080500860BFF34F8FBFF34A
:1034C0006F8FE3E704ED00E02DE9FF4782B01D4672
:1034D0008A464FF00008040003D0BAF1000F08D06C
:1034E00011E0502080F31188BFF34F8FBFF36F8F2F
:1034F000FEE7206C38B1502080F31188BFF34F8F66
:10350000BFF36F8FFEE7022D0AD1E06B012807D0D1
:10351000502080F31188BFF34F8FBFF36F8FFEE70A
:1035200000F0B0F93F4F4FF000094FF0805648B916
:10353000049838B1502080F31188BFF34F8FBFF348
:103540006F8FFEE7FFF768FDA06BE16B884207D342
:10355000022D05D00498D0B1B8F1000F1AD01EE0AA
:103560002A4651462046FFF75EFA616A19B104F116
:10357000240000F053FA20B13E60BFF34F8FBFF339
:103580006F8FFFF769FD012006B0BDE8F087FFF7F8
:1035900063FD22E06846FFF749FE4FF00108FFF7A0
:1035A0005BFDFFF79FFEFFF737FD94F94400401CD9
:1035B00001D184F8449094F94500401C01D184F86D
:1035C0004590FFF749FD04A9684600F0C9F830B1FD
:1035D0002046FFF779FB00F05BFA0020D4E7FFF705
:1035E0001BFDA06BE16B884213D1FFF735FD04F1A1
:1035F00010000499FFF728FE2046FFF765FB00F056
:1036000047FA00289ED13E60BFF34F8FBFF36F8F04
:1036100098E7FFF721FD2046FFF756FB00F038FA48
:1036200090E7000004ED00E02DE9F747002683B0A5
:103630008A46040003D0BAF1000F08D011E05020F0
:1036400080F31188BFF34F8FBFF36F8FFEE7206CBD
:1036500038B1502080F31188BFF34F8FBFF36F8FC5
:10366000FEE700F00FF9DFF8F4804FF000094FF0AB
:10367000805748B9059838B1502080F31188BFF3BE
:103680004F8FBFF36F8FFEE7FFF7C6FCA56BC5B189
:1036900051462046FFF7B4F96D1EA563206950B16D
:1036A00004F1100000F0BAF928B1C8F80070BFF3B7
:1036B0004F8FBFF36F8FFFF7CFFC012006B0BDE83F
:1036C000F087059808B11EB106E0FFF7C5FC27E0BA
:1036D0006846FFF7ABFD0126FFF7BEFCFFF702FED1
:1036E000FFF79AFC94F94400401C01D184F84490FF
:1036F00094F94500401C01D184F84590FFF7ACFCDB
:1037000005A9684600F02CF8002820460AD0FFF7EB
:10371000DBFA00F0BDF92046FFF7A4FA0028B3D089
:103720000020CBE7FFF79EFA90B104F12400059941
:10373000FFF78AFD2046FFF7C7FA00F0A9F9002835
:10374000A2D1C8F80070BFF34F8FBFF36F8F9BE714
:103750002046FFF7B9FA00F09BF995E704ED00E089
:103760002DE9F0410C46050011D0C4B1FFF754FC1F
:10377000174B5A696E682068911B471C17D02F6839
:103780009B6A9F4219D0964217D8012410E050201E
:1037900080F31188BFF34F8FBFF36F8FFEE7502088
:1037A00080F31188BFF34F8FBFF36F8FFEE70024C4
:1037B000FFF752FC2046BDE8F081884205D9401A47
:1037C00020602846FFF732FDF1E700202060DCE7AB
:1037D0002C0000202DE9FF5F8346DDE90E87994626
:1037E00016468A469000FFF7A5FA05001CD0542023
:1037F000FFF7A0FA040014D00020256384F85100DC
:10380000CDE90240CDE900874B4632465146584645
:10381000FFF7BBF92046FFF78BF8012004B0BDE8A5
:10382000F09F2846FFF72CFC4FF0FF30F6E7F0B58D
:1038300085B0DDE90B640A9DA6B1DCB15427009781
:103840002663022684F85160002604AFCDE90246C3
:10385000CDE90057FFF799F92046FFF769F804987A
:1038600005B0F0BD502080F31188BFF34F8FBFF338
:103870006F8FFEE7502080F31188BFF34F8FBFF3A7
:103880006F8FFEE70548C16919B1806B18B1002040
:103890007047012070470220704700002C00002074
:1038A00001484069704700002C00002010B5FFF768
:1038B00027FC0148406910BD2C0000202DE9F04193
:1038C0002E4C0027A06B40B1206A401C2062606A29
:1038D00000B101273846BDE8F0816669761C666153
:1038E00013D16068006838B1502080F31188BFF3AD
:1038F0004F8FBFF36F8FFEE76068A1686160A060C3
:10390000A06A401CA062FFF7BBF9206BDFF8708053
:10391000864209D36068006880B16068C068C56885
:10392000686886420DD220632068C06A00EB80017F
:1039300058F821000128CAD90127C8E74FF0FF3005
:10394000F1E7281DFFF718FBA86A18B105F1180068
:10395000FFF712FBE86A0121A26981401143A161CE
:1039600000EB800108EB8100291DFFF749FBE86AA5
:103970002168C96A8842CDD30127CBE72C000020FB
:10398000E807002070B504004FF0000140D0214D41
:103990002868844207D0502080F31188BFF34F8FEE
:1039A000BFF36F8FFEE7A06C38B1401EA064636C5C
:1039B000E26A9A422CD040B12AE0502080F311886C
:1039C000BFF34F8FBFF36F8FFEE7201DFFF7D4FAD1
:1039D000114A012150B9E06A00EB800352F823300C
:1039E00023B9AB6901FA00F08343AB61606CE0621C
:1039F000C0F10700A061E06AAB6981401943A96189
:103A000000EB800002EB8000211DFFF7F9FA012195
:103A1000084670BD2C000020E80700202DE9F04189
:103A2000C068C468ACB104F118000746FFF7A4FAF7
:103A3000154DA86B0126A0B139461448FFF7E0FAEE
:103A4000E06A2968C96A88421CD901206E62BDE813
:103A5000F081502080F31188BFF34F8FBFF36F8F39
:103A6000FEE7201DFFF788FAE16AAA6906FA01F06D
:103A70001043A86101EB81000449B43901EB8000D7
:103A8000211DDBE70020E2E72C0000209C0800203D
:103A90002DE9F0472C4D00242746A86B38B1FFF7DD
:103AA000BBFAA86B401EA863A86B40B146E050204B
:103AB00080F31188BFF34F8FBFF36F8FFEE7296943
:103AC000224E0120D1B3A6F1B40980463068E8B196
:103AD000F068C46804F11800FFF74EFA201DFFF7E4
:103AE0004BFAE06AAA6908FA00F11143A96100EBF8
:103AF000800109EB8100211DFFF782FAE06A296845
:103B0000C96A8842E2D3C5F82480DFE70CB1FFF729
:103B1000B7F82C6A44B14646FFF7D0FE00B16E629A
:103B2000641EF9D100202862686A38B1084901276B
:103B300038070860BFF34F8FBFF36F8FFFF78CFA22
:103B40003846BDE8F08700002C0000209C080020CB
:103B500004ED00E021F00042A2F16052B2F5801FB6
:103B600001F0004328BFD2F17F6C0BD95FEA001C43
:103B700043EAC20242EB507018BF704728BF20F0E2
:103B800001007047B2F5801FBCBF184670474FEA6E
:103B9000410C1CF5001F02D2084600F03EBC70B577
:103BA00000F00AFA00000089FFF7F6BF4FF000406E
:103BB000A0F580007047000010B591EA030F48BFE0
:103BC00083F0004300F15482841A71EB030C05D298
:103BD000121943EB0C03001B61EB0C01DFF824E12D
:103BE0004FEA1154A4EB135C1EEA430F18BF9EEA80
:103BF000445F73D023EA0E03DCF1200E21EA045166
:103C000043F4801332D322FA0CFE10EB0E0023FA99
:103C10000CFE41EB0E01CCF1200E03FA0EFE10EB70
:103C20000E0051F10001B1F5801FCCF1200E32D20F
:103C300001EB045112FA0EF2BDE8104058BF704774
:103C4000401C38BF5FEA420218BF7047002814BF0B
:103C500020F0010041F100014FEA410313F5001F7C
:103C600038BF7047A1F1C04100F0F4B9012A43EB1D
:103C70000302ACF1200CDCF11F0E32BF4FF0000E3E
:103C800023FA0CF310EB030041EB0451B4EB115F8A
:103C9000D0D0A1EB045101F5801149085FEA300052
:103CA00001EB04510ED350F1000038BF12FA0EFEA2
:103CB00008D1BDE81040C9E7401C38BF5FEA4202A6
:103CC000CAD1C3E7BDE810404FEA410313F5001F16
:103CD00038BF7047A1F1C04100F0BCB99EEA445F13
:103CE00008D011EA5E0FBDE8104004BF01F00041AA
:103CF00000207047BDE8104070B500F05DF900BFCE
:103D000064FBBE3E0000E0FF2DE9C04130B4DFF8A7
:103D1000A0C23CEA111418BF3CEA131400F0EC8076
:103D200081EA03051CEA111444EAD57418BF1CEAA1
:103D3000131500F0C780A4EB05044FF0004545EAD9
:103D4000C12145EAC32341EA505143EA525304F1E9
:103D50007F74994204F500344FEAC0204FEAC22232
:103D600008BF904200F09C804FEA13650FF24016A6
:103D7000765D4FEA134506FB05F7C7F1807706FB32
:103D800007F74FEAD737A7FB03687642C8F58038B4
:103D9000A7FB06CE38BFA8F1010807FB08E64FF0E5
:103DA000000EA6FB028CE6FB03CEDCF1000CCEF18C
:103DB000004E38BFAEF1010EA6FB0C584FF00007C5
:103DC0004FF00005E6FB0E87A1FB08C6A0FB07CE5F
:103DD00016EB0E0645F10005E1FB076515F1E04E17
:103DE0007EBFA4F580345FEA46066D4116F1800778
:103DF00045F100054FEA17274FEA066647EA0567CF
:103E0000A6F1DE46B6F1805F4FEA15251FD9384688
:103E100024F0010C05EBC471BCF1FE6F01EB0C1139
:103E200002D8F0BCBDE8008124425CBF01F5801ED1
:103E30009EEAC47F02D4F0BCBDE80081244238D49D
:103E4000F0BCA1F1C041BDE8004100F003B94FEA68
:103E5000D22242EA43524FEAD323A7FB02864FEA1B
:103E6000D02040EA415007FB03661EEA0E0F4FEADE
:103E7000D12105FB026658BFA6EB0056B6EB0056F3
:103E80004FEA520E4EEAC37E18EB0E0E56EB530E5F
:103E9000BDD518EB02085E417F1C55F10005B6E761
:103EA0004FF480154FF000074FF000064FF0000868
:103EB000ADE7F0BC4FF0000001F1C04101F000415E
:103EC000BDE8008111EA0C1F0CEA131500D00CE0CC
:103ED00013EA0C1F00F025804FF00000F0BC81EACF
:103EE000030101F00041BDE80081F0BCBDE80041E4
:103EF00081EA030100F0AEB8F0BCBDE8004170B546
:103F000000F05AF8097EFC3E00F007B881EA030190
:103F10004FF0000001F00041704781EA030100F01A
:103F200099B8F0BCBDE800414FF00000214970474E
:103F3000FFFDFBF9F7F5F4F2F0EEEDEBE9E8E6E46E
:103F4000E3E1E0DEDDDBDAD8D7D5D4D3D1D0CFCDF5
:103F5000CCCBCAC8C7C6C5C4C2C1C0BFBEBDBCBB2E
:103F6000BAB9B8B7B6B5B4B3B2B1B0AFAEADACAB29
:103F7000AAA9A8A8A7A6A5A4A3A3A2A1A09F9F9E03
:103F80009D9C9C9B9A9999989797969595949393B5
:103F9000929191908F8F8E8E8D8C8C8B8B8A89894C
:103FA00088888787868585848483838282818180CF
:103FB0000000FF070000F87F0EF1020E2EF0030E46
:103FC0005EF8046B364205D4012A43EB030515F570
:103FD000001F12D8012841EB010C1CF5001F0CD862
:103FE0000ED14FEAD17C15F5001F0CEB4C0C0CF1F7
:103FF000020C08BF4CEBD37C04E04FF0080C01E04E
:104000004FEAD37C0CEB4C0526FA05F606F00706C2
:10401000B6F1040C06D20EEB860CBDE870404CF0F5
:10402000010C6047DFE80CF0090B02024FF0004181
:104030004FF00000A1F5002170BD1946104601287F
:1040400051EB010418BFD4F5001484BF002001F027
:10405000004170BD0808A0F500114FEA310170471A
:1040600010B591EA030F48BF83F000433FF5ACADB4
:10407000841A71EB030C07D212198CF0004C43EB3D
:104080000C03001B61EB0C01DFF8A4E14FEA1154B3
:10409000A4EB135C1EEA430F18BF9EEA445F00F0D6
:1040A000B08023EA6E03524221EA0451C3EB6E034F
:1040B00038BF5B1EDCF1200E25D322FA0CFE10EB7C
:1040C0000E0043FA0CFE41EB0E01CCF1200E03FA78
:1040D0000EFE10EB0E0051F10001CCF1200E29D4A0
:1040E00012FA0EF201EB0451BDE8104058BF7047C0
:1040F000401C1CBFB2F1004F704700280CBF491C88
:1041000020F00100704712EB020E43EB030218BFD0
:104110004FF0010E4EEA4202ACF1200CDCF11E0E13
:1041200054D943FA0CFE10EB0E0051F1FF31CCF1E3
:104130001E0ED5D50EF1010E12FA0EFE404141EBD6
:10414000010101EB445C5FEA5C5C10D910EBDE70AE
:1041500001EB045138BFBEF1004FBDE8104018BF5D
:10416000704700280CBF491C20F00100704730D276
:104170004FEAD42C11F5001124F400641BD0B1FADD
:1041800081F20B3AA41AA41ED2F12003914030FA16
:1041900003F31943904001EBCC71002C01EB045167
:1041A000BDE81040A8BF704701F1C0414FF00000CA
:1041B00001F000417047B0FA80F310FA03F100D12A
:1041C00010BDE41A173C4805C90AE4E701EB0451A5
:1041D00010BD491001EB0451BDE810404FEA30001A
:1041E00002E04FF0000170474A0008BF0042F8D0DB
:1041F000B2F5001F28BF704701F000414FF00000EA
:1042000070479EEA445F07D011EA5E0FBDE8104098
:1042100004BF002100207047BDE8104070B5FFF7D3
:10422000CBFE00BF40DFF63E83F0004110467047F2
:104230000000E0FF43004FEAD30C4FEA3C0C434040
:104240001FBF40070CF1605113F0FE4F70471CF088
:10425000006F03D100200CF0004170470CF00043C8
:1042600043EA507010B540EACC0000F090F800BF6F
:10427000000000924FEA0001FFF7ECBE4FF0004152
:104280004FF00000A1F500217047000090EA010FF7
:1042900048BF81F0004100F1CC80421A3CBF801A37
:1042A00089184FEAD0524FF07F4C1CEA410FA2EB25
:1042B000D15318BF9CEA026F00F03B804FF0004CD6
:1042C0004CEA00204CEA012121FA03FC10EB0C0C13
:1042D0001ED202F1FF325FEA1C2040EBC25038BF11
:1042E00070471CF07F0F4FEA400C18BFBCF17F4FA6
:1042F00038BF7047C3F12003994008BF20F0010088
:10430000BCF17F4F38BF7047A0F1C04000F085B8C6
:104310004FEA3C00000A40EBC25028BF1CF0FF0FE0
:104320004FEA400CE6D018BFBCF17F4F38BF704752
:10433000EAE79CEA026F05D010EA5C0F08BF00F0C4
:104340000040704710B500F022F800BF64FBBE3E8D
:10435000C10DD1F19E0206DB4FEA002343F000437A
:1043600023FA02F07047004207D54FEA4001B1F14D
:10437000FE4F02D24FF00000704710B500F007F872
:1043800049922480002070476FEA200070470EF1A8
:10439000020E2EF0030E5EF8044B244204D44FEAC2
:1043A0004102B2F17F4F11D84FEA4003B3F17F4F82
:1043B0000CD80ED14FEAD07CB2F17F4F0CEB4C0CF5
:1043C0000CF1020C08BF4CEBD17C04E04FF0080C60
:1043D00001E04FEAD17C0CEB4C0324FA03F404F027
:1043E0000704B4F1040C06D20EEB840CBDE81040B7
:1043F0004CF0010C6047DFE80CF0070802024FF0B8
:104400000040A0F5800010BD0846420018BFD2F160
:10441000807288BF00F0004010BDFF2141EAD050FB
:10442000C005704790EA010F48BF81F000413FF599
:1044300034AF421A04D882F00042A0EB02001144CB
:104440004FEAD0524FF07F4C1CEA410FA2EBD15300
:1044500018BF9CEA026F4AD04FF0004C4CEA002093
:104460004CEA012121FA03FCB0EB0C0C0FD412F042
:10447000FE0F36D05FEA4C001DD5001240EBC25053
:1044800038BF70471CF03F0F18BF70470BE0A2F118
:1044900001025FEA1C2040EBC25038BF70471CF09D
:1044A0007F0F18BF7047C3F12003994014BF401E0F
:1044B00020F00100704780084FEA122308BF7047C0
:1044C000B0FA80FCA2EB0C02CCF1280C60FA0CF0E4
:1044D00093EA122F04BF00EBC25070474FEAC3703B
:1044E0007047130A5FEADC1008BF7047F6E79CEAE2
:1044F000026F04D010EA5C0F08BF0020704710B5AF
:10450000FFF745FF40DFF63E81F0004070470000B6
:10451000DC450008B11E000800000000000000009B
:10452000800000000000000000000000C0450008FE
:10453000112F0008000000000000000080000000B3
:104540000000000000000000AC450008A52E000897
:1045500000000000000000008000000000000000DB
:1045600000000000D04500086D2700080000000092
:1045700000000000800000000000000000000000BB
:10458000010202030405060708090A0B0C0D0E0FB1
:1045900010100000000000000000010203040607E4
:1045A000080900000000010203040000726F735F3D
:1045B0006D73675F7075625F5461736B000000001C
:1045C00075736172745F73656E645F5461736B00C1
:1045D0006A6F696E745F5461736B00006465666135
:1045E000756C745461736B0008460008000000206D
:1045F0008C00000028010008944600088C00002070
:10460000AC1A000044010008000000000000000097
:10461000000000000000000000000000000000009A
:104620000000000001000000100000000000000079
:104630000024F40000000000000000000000000062
:10464000000000000000000000000000000000006A
:10465000000000000000000000000000000000005A
:10466000000000000000000000000000000000004A
:10467000000000000000000000000000000000003A
:10468000000000000000000000000000AAAAAAAA82
:044690000000000026
:04000005080000ED02
:00000001FF
